{
	"jobposting.sol": {
		"JobPosting": {
			"abi": [
				{
					"anonymous": false,
					"inputs": [
						{
							"indexed": false,
							"internalType": "uint256",
							"name": "jobId",
							"type": "uint256"
						},
						{
							"indexed": false,
							"internalType": "address",
							"name": "applicant",
							"type": "address"
						}
					],
					"name": "JobApplied",
					"type": "event"
				},
				{
					"anonymous": false,
					"inputs": [
						{
							"indexed": false,
							"internalType": "uint256",
							"name": "jobId",
							"type": "uint256"
						},
						{
							"indexed": false,
							"internalType": "string",
							"name": "title",
							"type": "string"
						},
						{
							"indexed": false,
							"internalType": "address",
							"name": "employer",
							"type": "address"
						}
					],
					"name": "JobPosted",
					"type": "event"
				},
				{
					"inputs": [
						{
							"internalType": "uint256",
							"name": "_jobId",
							"type": "uint256"
						}
					],
					"name": "applyForJob",
					"outputs": [],
					"stateMutability": "nonpayable",
					"type": "function"
				},
				{
					"inputs": [
						{
							"internalType": "uint256",
							"name": "_jobId",
							"type": "uint256"
						}
					],
					"name": "getJob",
					"outputs": [
						{
							"internalType": "string",
							"name": "",
							"type": "string"
						},
						{
							"internalType": "string",
							"name": "",
							"type": "string"
						},
						{
							"internalType": "address",
							"name": "",
							"type": "address"
						},
						{
							"internalType": "address",
							"name": "",
							"type": "address"
						},
						{
							"internalType": "bool",
							"name": "",
							"type": "bool"
						}
					],
					"stateMutability": "view",
					"type": "function"
				},
				{
					"inputs": [],
					"name": "jobCount",
					"outputs": [
						{
							"internalType": "uint256",
							"name": "",
							"type": "uint256"
						}
					],
					"stateMutability": "view",
					"type": "function"
				},
				{
					"inputs": [
						{
							"internalType": "uint256",
							"name": "",
							"type": "uint256"
						}
					],
					"name": "jobs",
					"outputs": [
						{
							"internalType": "uint256",
							"name": "id",
							"type": "uint256"
						},
						{
							"internalType": "string",
							"name": "title",
							"type": "string"
						},
						{
							"internalType": "string",
							"name": "description",
							"type": "string"
						},
						{
							"internalType": "address",
							"name": "employer",
							"type": "address"
						},
						{
							"internalType": "address",
							"name": "applicant",
							"type": "address"
						},
						{
							"internalType": "bool",
							"name": "isOpen",
							"type": "bool"
						}
					],
					"stateMutability": "view",
					"type": "function"
				},
				{
					"inputs": [
						{
							"internalType": "string",
							"name": "_title",
							"type": "string"
						},
						{
							"internalType": "string",
							"name": "_description",
							"type": "string"
						}
					],
					"name": "postJob",
					"outputs": [],
					"stateMutability": "nonpayable",
					"type": "function"
				}
			],
			"devdoc": {
				"kind": "dev",
				"methods": {},
				"version": 1
			},
			"evm": {
				"assembly": "    /* \"jobposting.sol\":60:1314  contract JobPosting {... */\n  mstore(0x40, 0x80)\n  callvalue\n  dup1\n  iszero\n  tag_1\n  jumpi\n  0x00\n  dup1\n  revert\ntag_1:\n  pop\n  dataSize(sub_0)\n  dup1\n  dataOffset(sub_0)\n  0x00\n  codecopy\n  0x00\n  return\nstop\n\nsub_0: assembly {\n        /* \"jobposting.sol\":60:1314  contract JobPosting {... */\n      mstore(0x40, 0x80)\n      callvalue\n      dup1\n      iszero\n      tag_1\n      jumpi\n      0x00\n      dup1\n      revert\n    tag_1:\n      pop\n      jumpi(tag_2, lt(calldatasize, 0x04))\n      shr(0xe0, calldataload(0x00))\n      dup1\n      0x180aedf3\n      eq\n      tag_3\n      jumpi\n      dup1\n      0x4c5d8a0f\n      eq\n      tag_4\n      jumpi\n      dup1\n      0xa01e5676\n      eq\n      tag_5\n      jumpi\n      dup1\n      0xbf22c457\n      eq\n      tag_6\n      jumpi\n      dup1\n      0xe0c94ae5\n      eq\n      tag_7\n      jumpi\n    tag_2:\n      0x00\n      dup1\n      revert\n        /* \"jobposting.sol\":264:299  mapping(uint256 => Job) public jobs */\n    tag_3:\n      tag_8\n      0x04\n      dup1\n      calldatasize\n      sub\n      dup2\n      add\n      swap1\n      tag_9\n      swap2\n      swap1\n      tag_10\n      jump\t// in\n    tag_9:\n      tag_11\n      jump\t// in\n    tag_8:\n      mload(0x40)\n      tag_12\n      swap7\n      swap6\n      swap5\n      swap4\n      swap3\n      swap2\n      swap1\n      tag_13\n      jump\t// in\n    tag_12:\n      mload(0x40)\n      dup1\n      swap2\n      sub\n      swap1\n      return\n        /* \"jobposting.sol\":306:329  uint256 public jobCount */\n    tag_4:\n      tag_14\n      tag_15\n      jump\t// in\n    tag_14:\n      mload(0x40)\n      tag_16\n      swap2\n      swap1\n      tag_17\n      jump\t// in\n    tag_16:\n      mload(0x40)\n      dup1\n      swap2\n      sub\n      swap1\n      return\n        /* \"jobposting.sol\":466:717  function postJob(string memory _title, string memory _description) public {... */\n    tag_5:\n      tag_18\n      0x04\n      dup1\n      calldatasize\n      sub\n      dup2\n      add\n      swap1\n      tag_19\n      swap2\n      swap1\n      tag_20\n      jump\t// in\n    tag_19:\n      tag_21\n      jump\t// in\n    tag_18:\n      stop\n        /* \"jobposting.sol\":1069:1311  function getJob(uint256 _jobId) public view returns (string memory, string memory, address, address, bool) {... */\n    tag_6:\n      tag_22\n      0x04\n      dup1\n      calldatasize\n      sub\n      dup2\n      add\n      swap1\n      tag_23\n      swap2\n      swap1\n      tag_10\n      jump\t// in\n    tag_23:\n      tag_24\n      jump\t// in\n    tag_22:\n      mload(0x40)\n      tag_25\n      swap6\n      swap5\n      swap4\n      swap3\n      swap2\n      swap1\n      tag_26\n      jump\t// in\n    tag_25:\n      mload(0x40)\n      dup1\n      swap2\n      sub\n      swap1\n      return\n        /* \"jobposting.sol\":725:1061  function applyForJob(uint256 _jobId) public {... */\n    tag_7:\n      tag_27\n      0x04\n      dup1\n      calldatasize\n      sub\n      dup2\n      add\n      swap1\n      tag_28\n      swap2\n      swap1\n      tag_10\n      jump\t// in\n    tag_28:\n      tag_29\n      jump\t// in\n    tag_27:\n      stop\n        /* \"jobposting.sol\":264:299  mapping(uint256 => Job) public jobs */\n    tag_11:\n      mstore(0x20, 0x00)\n      dup1\n      0x00\n      mstore\n      keccak256(0x00, 0x40)\n      0x00\n      swap2\n      pop\n      swap1\n      pop\n      dup1\n      0x00\n      add\n      sload\n      swap1\n      dup1\n      0x01\n      add\n      dup1\n      sload\n      tag_30\n      swap1\n      tag_31\n      jump\t// in\n    tag_30:\n      dup1\n      0x1f\n      add\n      0x20\n      dup1\n      swap2\n      div\n      mul\n      0x20\n      add\n      mload(0x40)\n      swap1\n      dup2\n      add\n      0x40\n      mstore\n      dup1\n      swap3\n      swap2\n      swap1\n      dup2\n      dup2\n      mstore\n      0x20\n      add\n      dup3\n      dup1\n      sload\n      tag_32\n      swap1\n      tag_31\n      jump\t// in\n    tag_32:\n      dup1\n      iszero\n      tag_33\n      jumpi\n      dup1\n      0x1f\n      lt\n      tag_34\n      jumpi\n      0x0100\n      dup1\n      dup4\n      sload\n      div\n      mul\n      dup4\n      mstore\n      swap2\n      0x20\n      add\n      swap2\n      jump(tag_33)\n    tag_34:\n      dup3\n      add\n      swap2\n      swap1\n      0x00\n      mstore\n      keccak256(0x00, 0x20)\n      swap1\n    tag_35:\n      dup2\n      sload\n      dup2\n      mstore\n      swap1\n      0x01\n      add\n      swap1\n      0x20\n      add\n      dup1\n      dup4\n      gt\n      tag_35\n      jumpi\n      dup3\n      swap1\n      sub\n      0x1f\n      and\n      dup3\n      add\n      swap2\n    tag_33:\n      pop\n      pop\n      pop\n      pop\n      pop\n      swap1\n      dup1\n      0x02\n      add\n      dup1\n      sload\n      tag_36\n      swap1\n      tag_31\n      jump\t// in\n    tag_36:\n      dup1\n      0x1f\n      add\n      0x20\n      dup1\n      swap2\n      div\n      mul\n      0x20\n      add\n      mload(0x40)\n      swap1\n      dup2\n      add\n      0x40\n      mstore\n      dup1\n      swap3\n      swap2\n      swap1\n      dup2\n      dup2\n      mstore\n      0x20\n      add\n      dup3\n      dup1\n      sload\n      tag_37\n      swap1\n      tag_31\n      jump\t// in\n    tag_37:\n      dup1\n      iszero\n      tag_38\n      jumpi\n      dup1\n      0x1f\n      lt\n      tag_39\n      jumpi\n      0x0100\n      dup1\n      dup4\n      sload\n      div\n      mul\n      dup4\n      mstore\n      swap2\n      0x20\n      add\n      swap2\n      jump(tag_38)\n    tag_39:\n      dup3\n      add\n      swap2\n      swap1\n      0x00\n      mstore\n      keccak256(0x00, 0x20)\n      swap1\n    tag_40:\n      dup2\n      sload\n      dup2\n      mstore\n      swap1\n      0x01\n      add\n      swap1\n      0x20\n      add\n      dup1\n      dup4\n      gt\n      tag_40\n      jumpi\n      dup3\n      swap1\n      sub\n      0x1f\n      and\n      dup3\n      add\n      swap2\n    tag_38:\n      pop\n      pop\n      pop\n      pop\n      pop\n      swap1\n      dup1\n      0x03\n      add\n      0x00\n      swap1\n      sload\n      swap1\n      0x0100\n      exp\n      swap1\n      div\n      0xffffffffffffffffffffffffffffffffffffffff\n      and\n      swap1\n      dup1\n      0x04\n      add\n      0x00\n      swap1\n      sload\n      swap1\n      0x0100\n      exp\n      swap1\n      div\n      0xffffffffffffffffffffffffffffffffffffffff\n      and\n      swap1\n      dup1\n      0x04\n      add\n      0x14\n      swap1\n      sload\n      swap1\n      0x0100\n      exp\n      swap1\n      div\n      0xff\n      and\n      swap1\n      pop\n      dup7\n      jump\t// out\n        /* \"jobposting.sol\":306:329  uint256 public jobCount */\n    tag_15:\n      sload(0x01)\n      dup2\n      jump\t// out\n        /* \"jobposting.sol\":466:717  function postJob(string memory _title, string memory _description) public {... */\n    tag_21:\n        /* \"jobposting.sol\":551:559  jobCount */\n      0x01\n      0x00\n        /* \"jobposting.sol\":551:561  jobCount++ */\n      dup2\n      sload\n      dup1\n      swap3\n      swap2\n      swap1\n      tag_42\n      swap1\n      tag_43\n      jump\t// in\n    tag_42:\n      swap2\n      swap1\n      pop\n      sstore\n      pop\n        /* \"jobposting.sol\":589:654  Job(jobCount, _title, _description, msg.sender, address(0), true) */\n      mload(0x40)\n      dup1\n      0xc0\n      add\n      0x40\n      mstore\n      dup1\n        /* \"jobposting.sol\":593:601  jobCount */\n      sload(0x01)\n        /* \"jobposting.sol\":589:654  Job(jobCount, _title, _description, msg.sender, address(0), true) */\n      dup2\n      mstore\n      0x20\n      add\n        /* \"jobposting.sol\":603:609  _title */\n      dup4\n        /* \"jobposting.sol\":589:654  Job(jobCount, _title, _description, msg.sender, address(0), true) */\n      dup2\n      mstore\n      0x20\n      add\n        /* \"jobposting.sol\":611:623  _description */\n      dup3\n        /* \"jobposting.sol\":589:654  Job(jobCount, _title, _description, msg.sender, address(0), true) */\n      dup2\n      mstore\n      0x20\n      add\n        /* \"jobposting.sol\":625:635  msg.sender */\n      caller\n        /* \"jobposting.sol\":589:654  Job(jobCount, _title, _description, msg.sender, address(0), true) */\n      0xffffffffffffffffffffffffffffffffffffffff\n      and\n      dup2\n      mstore\n      0x20\n      add\n        /* \"jobposting.sol\":645:646  0 */\n      0x00\n        /* \"jobposting.sol\":589:654  Job(jobCount, _title, _description, msg.sender, address(0), true) */\n      0xffffffffffffffffffffffffffffffffffffffff\n      and\n      dup2\n      mstore\n      0x20\n      add\n        /* \"jobposting.sol\":649:653  true */\n      0x01\n        /* \"jobposting.sol\":589:654  Job(jobCount, _title, _description, msg.sender, address(0), true) */\n      iszero\n      iszero\n      dup2\n      mstore\n      pop\n        /* \"jobposting.sol\":572:576  jobs */\n      0x00\n        /* \"jobposting.sol\":572:586  jobs[jobCount] */\n      dup1\n        /* \"jobposting.sol\":577:585  jobCount */\n      sload(0x01)\n        /* \"jobposting.sol\":572:586  jobs[jobCount] */\n      dup2\n      mstore\n      0x20\n      add\n      swap1\n      dup2\n      mstore\n      0x20\n      add\n      0x00\n      keccak256\n        /* \"jobposting.sol\":572:654  jobs[jobCount] = Job(jobCount, _title, _description, msg.sender, address(0), true) */\n      0x00\n      dup3\n      add\n      mload\n      dup2\n      0x00\n      add\n      sstore\n      0x20\n      dup3\n      add\n      mload\n      dup2\n      0x01\n      add\n      swap1\n      dup2\n      tag_44\n      swap2\n      swap1\n      tag_45\n      jump\t// in\n    tag_44:\n      pop\n      0x40\n      dup3\n      add\n      mload\n      dup2\n      0x02\n      add\n      swap1\n      dup2\n      tag_46\n      swap2\n      swap1\n      tag_45\n      jump\t// in\n    tag_46:\n      pop\n      0x60\n      dup3\n      add\n      mload\n      dup2\n      0x03\n      add\n      exp(0x0100, 0x00)\n      dup2\n      sload\n      dup2\n      0xffffffffffffffffffffffffffffffffffffffff\n      mul\n      not\n      and\n      swap1\n      dup4\n      0xffffffffffffffffffffffffffffffffffffffff\n      and\n      mul\n      or\n      swap1\n      sstore\n      pop\n      0x80\n      dup3\n      add\n      mload\n      dup2\n      0x04\n      add\n      exp(0x0100, 0x00)\n      dup2\n      sload\n      dup2\n      0xffffffffffffffffffffffffffffffffffffffff\n      mul\n      not\n      and\n      swap1\n      dup4\n      0xffffffffffffffffffffffffffffffffffffffff\n      and\n      mul\n      or\n      swap1\n      sstore\n      pop\n      0xa0\n      dup3\n      add\n      mload\n      dup2\n      0x04\n      add\n      exp(0x0100, 0x14)\n      dup2\n      sload\n      dup2\n      0xff\n      mul\n      not\n      and\n      swap1\n      dup4\n      iszero\n      iszero\n      mul\n      or\n      swap1\n      sstore\n      pop\n      swap1\n      pop\n      pop\n        /* \"jobposting.sol\":670:709  JobPosted(jobCount, _title, msg.sender) */\n      0x4d735a55ef1592186e3de98cfded1b75826f5b08a7d2777536ac6bcc9b5e8f2b\n        /* \"jobposting.sol\":680:688  jobCount */\n      sload(0x01)\n        /* \"jobposting.sol\":690:696  _title */\n      dup4\n        /* \"jobposting.sol\":698:708  msg.sender */\n      caller\n        /* \"jobposting.sol\":670:709  JobPosted(jobCount, _title, msg.sender) */\n      mload(0x40)\n      tag_47\n      swap4\n      swap3\n      swap2\n      swap1\n      tag_48\n      jump\t// in\n    tag_47:\n      mload(0x40)\n      dup1\n      swap2\n      sub\n      swap1\n      log1\n        /* \"jobposting.sol\":466:717  function postJob(string memory _title, string memory _description) public {... */\n      pop\n      pop\n      jump\t// out\n        /* \"jobposting.sol\":1069:1311  function getJob(uint256 _jobId) public view returns (string memory, string memory, address, address, bool) {... */\n    tag_24:\n        /* \"jobposting.sol\":1122:1135  string memory */\n      0x60\n        /* \"jobposting.sol\":1137:1150  string memory */\n      dup1\n        /* \"jobposting.sol\":1152:1159  address */\n      0x00\n        /* \"jobposting.sol\":1161:1168  address */\n      dup1\n        /* \"jobposting.sol\":1170:1174  bool */\n      0x00\n        /* \"jobposting.sol\":1187:1201  Job memory job */\n      dup1\n        /* \"jobposting.sol\":1204:1208  jobs */\n      0x00\n        /* \"jobposting.sol\":1204:1216  jobs[_jobId] */\n      dup1\n        /* \"jobposting.sol\":1209:1215  _jobId */\n      dup9\n        /* \"jobposting.sol\":1204:1216  jobs[_jobId] */\n      dup2\n      mstore\n      0x20\n      add\n      swap1\n      dup2\n      mstore\n      0x20\n      add\n      0x00\n      keccak256\n        /* \"jobposting.sol\":1187:1216  Job memory job = jobs[_jobId] */\n      mload(0x40)\n      dup1\n      0xc0\n      add\n      0x40\n      mstore\n      swap1\n      dup2\n      0x00\n      dup3\n      add\n      sload\n      dup2\n      mstore\n      0x20\n      add\n      0x01\n      dup3\n      add\n      dup1\n      sload\n      tag_50\n      swap1\n      tag_31\n      jump\t// in\n    tag_50:\n      dup1\n      0x1f\n      add\n      0x20\n      dup1\n      swap2\n      div\n      mul\n      0x20\n      add\n      mload(0x40)\n      swap1\n      dup2\n      add\n      0x40\n      mstore\n      dup1\n      swap3\n      swap2\n      swap1\n      dup2\n      dup2\n      mstore\n      0x20\n      add\n      dup3\n      dup1\n      sload\n      tag_51\n      swap1\n      tag_31\n      jump\t// in\n    tag_51:\n      dup1\n      iszero\n      tag_52\n      jumpi\n      dup1\n      0x1f\n      lt\n      tag_53\n      jumpi\n      0x0100\n      dup1\n      dup4\n      sload\n      div\n      mul\n      dup4\n      mstore\n      swap2\n      0x20\n      add\n      swap2\n      jump(tag_52)\n    tag_53:\n      dup3\n      add\n      swap2\n      swap1\n      0x00\n      mstore\n      keccak256(0x00, 0x20)\n      swap1\n    tag_54:\n      dup2\n      sload\n      dup2\n      mstore\n      swap1\n      0x01\n      add\n      swap1\n      0x20\n      add\n      dup1\n      dup4\n      gt\n      tag_54\n      jumpi\n      dup3\n      swap1\n      sub\n      0x1f\n      and\n      dup3\n      add\n      swap2\n    tag_52:\n      pop\n      pop\n      pop\n      pop\n      pop\n      dup2\n      mstore\n      0x20\n      add\n      0x02\n      dup3\n      add\n      dup1\n      sload\n      tag_55\n      swap1\n      tag_31\n      jump\t// in\n    tag_55:\n      dup1\n      0x1f\n      add\n      0x20\n      dup1\n      swap2\n      div\n      mul\n      0x20\n      add\n      mload(0x40)\n      swap1\n      dup2\n      add\n      0x40\n      mstore\n      dup1\n      swap3\n      swap2\n      swap1\n      dup2\n      dup2\n      mstore\n      0x20\n      add\n      dup3\n      dup1\n      sload\n      tag_56\n      swap1\n      tag_31\n      jump\t// in\n    tag_56:\n      dup1\n      iszero\n      tag_57\n      jumpi\n      dup1\n      0x1f\n      lt\n      tag_58\n      jumpi\n      0x0100\n      dup1\n      dup4\n      sload\n      div\n      mul\n      dup4\n      mstore\n      swap2\n      0x20\n      add\n      swap2\n      jump(tag_57)\n    tag_58:\n      dup3\n      add\n      swap2\n      swap1\n      0x00\n      mstore\n      keccak256(0x00, 0x20)\n      swap1\n    tag_59:\n      dup2\n      sload\n      dup2\n      mstore\n      swap1\n      0x01\n      add\n      swap1\n      0x20\n      add\n      dup1\n      dup4\n      gt\n      tag_59\n      jumpi\n      dup3\n      swap1\n      sub\n      0x1f\n      and\n      dup3\n      add\n      swap2\n    tag_57:\n      pop\n      pop\n      pop\n      pop\n      pop\n      dup2\n      mstore\n      0x20\n      add\n      0x03\n      dup3\n      add\n      0x00\n      swap1\n      sload\n      swap1\n      0x0100\n      exp\n      swap1\n      div\n      0xffffffffffffffffffffffffffffffffffffffff\n      and\n      0xffffffffffffffffffffffffffffffffffffffff\n      and\n      0xffffffffffffffffffffffffffffffffffffffff\n      and\n      dup2\n      mstore\n      0x20\n      add\n      0x04\n      dup3\n      add\n      0x00\n      swap1\n      sload\n      swap1\n      0x0100\n      exp\n      swap1\n      div\n      0xffffffffffffffffffffffffffffffffffffffff\n      and\n      0xffffffffffffffffffffffffffffffffffffffff\n      and\n      0xffffffffffffffffffffffffffffffffffffffff\n      and\n      dup2\n      mstore\n      0x20\n      add\n      0x04\n      dup3\n      add\n      0x14\n      swap1\n      sload\n      swap1\n      0x0100\n      exp\n      swap1\n      div\n      0xff\n      and\n      iszero\n      iszero\n      iszero\n      iszero\n      dup2\n      mstore\n      pop\n      pop\n      swap1\n      pop\n        /* \"jobposting.sol\":1235:1238  job */\n      dup1\n        /* \"jobposting.sol\":1235:1244  job.title */\n      0x20\n      add\n      mload\n        /* \"jobposting.sol\":1246:1249  job */\n      dup2\n        /* \"jobposting.sol\":1246:1261  job.description */\n      0x40\n      add\n      mload\n        /* \"jobposting.sol\":1263:1266  job */\n      dup3\n        /* \"jobposting.sol\":1263:1275  job.employer */\n      0x60\n      add\n      mload\n        /* \"jobposting.sol\":1277:1280  job */\n      dup4\n        /* \"jobposting.sol\":1277:1290  job.applicant */\n      0x80\n      add\n      mload\n        /* \"jobposting.sol\":1292:1295  job */\n      dup5\n        /* \"jobposting.sol\":1292:1302  job.isOpen */\n      0xa0\n      add\n      mload\n        /* \"jobposting.sol\":1227:1303  return (job.title, job.description, job.employer, job.applicant, job.isOpen) */\n      swap6\n      pop\n      swap6\n      pop\n      swap6\n      pop\n      swap6\n      pop\n      swap6\n      pop\n      pop\n        /* \"jobposting.sol\":1069:1311  function getJob(uint256 _jobId) public view returns (string memory, string memory, address, address, bool) {... */\n      swap2\n      swap4\n      swap6\n      swap1\n      swap3\n      swap5\n      pop\n      jump\t// out\n        /* \"jobposting.sol\":725:1061  function applyForJob(uint256 _jobId) public {... */\n    tag_29:\n        /* \"jobposting.sol\":788:792  jobs */\n      0x00\n        /* \"jobposting.sol\":788:800  jobs[_jobId] */\n      dup1\n        /* \"jobposting.sol\":793:799  _jobId */\n      dup3\n        /* \"jobposting.sol\":788:800  jobs[_jobId] */\n      dup2\n      mstore\n      0x20\n      add\n      swap1\n      dup2\n      mstore\n      0x20\n      add\n      0x00\n      keccak256\n        /* \"jobposting.sol\":788:807  jobs[_jobId].isOpen */\n      0x04\n      add\n      0x14\n      swap1\n      sload\n      swap1\n      0x0100\n      exp\n      swap1\n      div\n      0xff\n      and\n        /* \"jobposting.sol\":780:833  require(jobs[_jobId].isOpen, \"Job is no longer open\") */\n      tag_61\n      jumpi\n      mload(0x40)\n      0x08c379a000000000000000000000000000000000000000000000000000000000\n      dup2\n      mstore\n      0x04\n      add\n      tag_62\n      swap1\n      tag_63\n      jump\t// in\n    tag_62:\n      mload(0x40)\n      dup1\n      swap2\n      sub\n      swap1\n      revert\n    tag_61:\n        /* \"jobposting.sol\":886:887  0 */\n      0x00\n        /* \"jobposting.sol\":852:888  jobs[_jobId].applicant == address(0) */\n      0xffffffffffffffffffffffffffffffffffffffff\n      and\n        /* \"jobposting.sol\":852:856  jobs */\n      0x00\n        /* \"jobposting.sol\":852:864  jobs[_jobId] */\n      dup1\n        /* \"jobposting.sol\":857:863  _jobId */\n      dup4\n        /* \"jobposting.sol\":852:864  jobs[_jobId] */\n      dup2\n      mstore\n      0x20\n      add\n      swap1\n      dup2\n      mstore\n      0x20\n      add\n      0x00\n      keccak256\n        /* \"jobposting.sol\":852:874  jobs[_jobId].applicant */\n      0x04\n      add\n      0x00\n      swap1\n      sload\n      swap1\n      0x0100\n      exp\n      swap1\n      div\n      0xffffffffffffffffffffffffffffffffffffffff\n      and\n        /* \"jobposting.sol\":852:888  jobs[_jobId].applicant == address(0) */\n      0xffffffffffffffffffffffffffffffffffffffff\n      and\n      eq\n        /* \"jobposting.sol\":844:921  require(jobs[_jobId].applicant == address(0), \"Job already has an applicant\") */\n      tag_64\n      jumpi\n      mload(0x40)\n      0x08c379a000000000000000000000000000000000000000000000000000000000\n      dup2\n      mstore\n      0x04\n      add\n      tag_65\n      swap1\n      tag_66\n      jump\t// in\n    tag_65:\n      mload(0x40)\n      dup1\n      swap2\n      sub\n      swap1\n      revert\n    tag_64:\n        /* \"jobposting.sol\":959:969  msg.sender */\n      caller\n        /* \"jobposting.sol\":934:938  jobs */\n      0x00\n        /* \"jobposting.sol\":934:946  jobs[_jobId] */\n      dup1\n        /* \"jobposting.sol\":939:945  _jobId */\n      dup4\n        /* \"jobposting.sol\":934:946  jobs[_jobId] */\n      dup2\n      mstore\n      0x20\n      add\n      swap1\n      dup2\n      mstore\n      0x20\n      add\n      0x00\n      keccak256\n        /* \"jobposting.sol\":934:956  jobs[_jobId].applicant */\n      0x04\n      add\n      0x00\n        /* \"jobposting.sol\":934:969  jobs[_jobId].applicant = msg.sender */\n      0x0100\n      exp\n      dup2\n      sload\n      dup2\n      0xffffffffffffffffffffffffffffffffffffffff\n      mul\n      not\n      and\n      swap1\n      dup4\n      0xffffffffffffffffffffffffffffffffffffffff\n      and\n      mul\n      or\n      swap1\n      sstore\n      pop\n        /* \"jobposting.sol\":1002:1007  false */\n      0x00\n        /* \"jobposting.sol\":980:984  jobs */\n      dup1\n        /* \"jobposting.sol\":980:992  jobs[_jobId] */\n      0x00\n        /* \"jobposting.sol\":985:991  _jobId */\n      dup4\n        /* \"jobposting.sol\":980:992  jobs[_jobId] */\n      dup2\n      mstore\n      0x20\n      add\n      swap1\n      dup2\n      mstore\n      0x20\n      add\n      0x00\n      keccak256\n        /* \"jobposting.sol\":980:999  jobs[_jobId].isOpen */\n      0x04\n      add\n      0x14\n        /* \"jobposting.sol\":980:1007  jobs[_jobId].isOpen = false */\n      0x0100\n      exp\n      dup2\n      sload\n      dup2\n      0xff\n      mul\n      not\n      and\n      swap1\n      dup4\n      iszero\n      iszero\n      mul\n      or\n      swap1\n      sstore\n      pop\n        /* \"jobposting.sol\":1023:1053  JobApplied(_jobId, msg.sender) */\n      0xffa837d183240a5f25cbd643a8eade702c0c9c3e186c59c7d929e4f1a3438d86\n        /* \"jobposting.sol\":1034:1040  _jobId */\n      dup2\n        /* \"jobposting.sol\":1042:1052  msg.sender */\n      caller\n        /* \"jobposting.sol\":1023:1053  JobApplied(_jobId, msg.sender) */\n      mload(0x40)\n      tag_67\n      swap3\n      swap2\n      swap1\n      tag_68\n      jump\t// in\n    tag_67:\n      mload(0x40)\n      dup1\n      swap2\n      sub\n      swap1\n      log1\n        /* \"jobposting.sol\":725:1061  function applyForJob(uint256 _jobId) public {... */\n      pop\n      jump\t// out\n        /* \"#utility.yul\":7:82   */\n    tag_69:\n        /* \"#utility.yul\":40:46   */\n      0x00\n        /* \"#utility.yul\":73:75   */\n      0x40\n        /* \"#utility.yul\":67:76   */\n      mload\n        /* \"#utility.yul\":57:76   */\n      swap1\n      pop\n        /* \"#utility.yul\":7:82   */\n      swap1\n      jump\t// out\n        /* \"#utility.yul\":88:205   */\n    tag_70:\n        /* \"#utility.yul\":197:198   */\n      0x00\n        /* \"#utility.yul\":194:195   */\n      dup1\n        /* \"#utility.yul\":187:199   */\n      revert\n        /* \"#utility.yul\":211:328   */\n    tag_71:\n        /* \"#utility.yul\":320:321   */\n      0x00\n        /* \"#utility.yul\":317:318   */\n      dup1\n        /* \"#utility.yul\":310:322   */\n      revert\n        /* \"#utility.yul\":334:411   */\n    tag_72:\n        /* \"#utility.yul\":371:378   */\n      0x00\n        /* \"#utility.yul\":400:405   */\n      dup2\n        /* \"#utility.yul\":389:405   */\n      swap1\n      pop\n        /* \"#utility.yul\":334:411   */\n      swap2\n      swap1\n      pop\n      jump\t// out\n        /* \"#utility.yul\":417:539   */\n    tag_73:\n        /* \"#utility.yul\":490:514   */\n      tag_122\n        /* \"#utility.yul\":508:513   */\n      dup2\n        /* \"#utility.yul\":490:514   */\n      tag_72\n      jump\t// in\n    tag_122:\n        /* \"#utility.yul\":483:488   */\n      dup2\n        /* \"#utility.yul\":480:515   */\n      eq\n        /* \"#utility.yul\":470:533   */\n      tag_123\n      jumpi\n        /* \"#utility.yul\":529:530   */\n      0x00\n        /* \"#utility.yul\":526:527   */\n      dup1\n        /* \"#utility.yul\":519:531   */\n      revert\n        /* \"#utility.yul\":470:533   */\n    tag_123:\n        /* \"#utility.yul\":417:539   */\n      pop\n      jump\t// out\n        /* \"#utility.yul\":545:684   */\n    tag_74:\n        /* \"#utility.yul\":591:596   */\n      0x00\n        /* \"#utility.yul\":629:635   */\n      dup2\n        /* \"#utility.yul\":616:636   */\n      calldataload\n        /* \"#utility.yul\":607:636   */\n      swap1\n      pop\n        /* \"#utility.yul\":645:678   */\n      tag_125\n        /* \"#utility.yul\":672:677   */\n      dup2\n        /* \"#utility.yul\":645:678   */\n      tag_73\n      jump\t// in\n    tag_125:\n        /* \"#utility.yul\":545:684   */\n      swap3\n      swap2\n      pop\n      pop\n      jump\t// out\n        /* \"#utility.yul\":690:1019   */\n    tag_10:\n        /* \"#utility.yul\":749:755   */\n      0x00\n        /* \"#utility.yul\":798:800   */\n      0x20\n        /* \"#utility.yul\":786:795   */\n      dup3\n        /* \"#utility.yul\":777:784   */\n      dup5\n        /* \"#utility.yul\":773:796   */\n      sub\n        /* \"#utility.yul\":769:801   */\n      slt\n        /* \"#utility.yul\":766:885   */\n      iszero\n      tag_127\n      jumpi\n        /* \"#utility.yul\":804:883   */\n      tag_128\n      tag_70\n      jump\t// in\n    tag_128:\n        /* \"#utility.yul\":766:885   */\n    tag_127:\n        /* \"#utility.yul\":924:925   */\n      0x00\n        /* \"#utility.yul\":949:1002   */\n      tag_129\n        /* \"#utility.yul\":994:1001   */\n      dup5\n        /* \"#utility.yul\":985:991   */\n      dup3\n        /* \"#utility.yul\":974:983   */\n      dup6\n        /* \"#utility.yul\":970:992   */\n      add\n        /* \"#utility.yul\":949:1002   */\n      tag_74\n      jump\t// in\n    tag_129:\n        /* \"#utility.yul\":939:1002   */\n      swap2\n      pop\n        /* \"#utility.yul\":895:1012   */\n      pop\n        /* \"#utility.yul\":690:1019   */\n      swap3\n      swap2\n      pop\n      pop\n      jump\t// out\n        /* \"#utility.yul\":1025:1143   */\n    tag_75:\n        /* \"#utility.yul\":1112:1136   */\n      tag_131\n        /* \"#utility.yul\":1130:1135   */\n      dup2\n        /* \"#utility.yul\":1112:1136   */\n      tag_72\n      jump\t// in\n    tag_131:\n        /* \"#utility.yul\":1107:1110   */\n      dup3\n        /* \"#utility.yul\":1100:1137   */\n      mstore\n        /* \"#utility.yul\":1025:1143   */\n      pop\n      pop\n      jump\t// out\n        /* \"#utility.yul\":1149:1248   */\n    tag_76:\n        /* \"#utility.yul\":1201:1207   */\n      0x00\n        /* \"#utility.yul\":1235:1240   */\n      dup2\n        /* \"#utility.yul\":1229:1241   */\n      mload\n        /* \"#utility.yul\":1219:1241   */\n      swap1\n      pop\n        /* \"#utility.yul\":1149:1248   */\n      swap2\n      swap1\n      pop\n      jump\t// out\n        /* \"#utility.yul\":1254:1423   */\n    tag_77:\n        /* \"#utility.yul\":1338:1349   */\n      0x00\n        /* \"#utility.yul\":1372:1378   */\n      dup3\n        /* \"#utility.yul\":1367:1370   */\n      dup3\n        /* \"#utility.yul\":1360:1379   */\n      mstore\n        /* \"#utility.yul\":1412:1416   */\n      0x20\n        /* \"#utility.yul\":1407:1410   */\n      dup3\n        /* \"#utility.yul\":1403:1417   */\n      add\n        /* \"#utility.yul\":1388:1417   */\n      swap1\n      pop\n        /* \"#utility.yul\":1254:1423   */\n      swap3\n      swap2\n      pop\n      pop\n      jump\t// out\n        /* \"#utility.yul\":1429:1568   */\n    tag_78:\n        /* \"#utility.yul\":1518:1524   */\n      dup3\n        /* \"#utility.yul\":1513:1516   */\n      dup2\n        /* \"#utility.yul\":1508:1511   */\n      dup4\n        /* \"#utility.yul\":1502:1525   */\n      mcopy\n        /* \"#utility.yul\":1559:1560   */\n      0x00\n        /* \"#utility.yul\":1550:1556   */\n      dup4\n        /* \"#utility.yul\":1545:1548   */\n      dup4\n        /* \"#utility.yul\":1541:1557   */\n      add\n        /* \"#utility.yul\":1534:1561   */\n      mstore\n        /* \"#utility.yul\":1429:1568   */\n      pop\n      pop\n      pop\n      jump\t// out\n        /* \"#utility.yul\":1574:1676   */\n    tag_79:\n        /* \"#utility.yul\":1615:1621   */\n      0x00\n        /* \"#utility.yul\":1666:1668   */\n      0x1f\n        /* \"#utility.yul\":1662:1669   */\n      not\n        /* \"#utility.yul\":1657:1659   */\n      0x1f\n        /* \"#utility.yul\":1650:1655   */\n      dup4\n        /* \"#utility.yul\":1646:1660   */\n      add\n        /* \"#utility.yul\":1642:1670   */\n      and\n        /* \"#utility.yul\":1632:1670   */\n      swap1\n      pop\n        /* \"#utility.yul\":1574:1676   */\n      swap2\n      swap1\n      pop\n      jump\t// out\n        /* \"#utility.yul\":1682:2059   */\n    tag_80:\n        /* \"#utility.yul\":1770:1773   */\n      0x00\n        /* \"#utility.yul\":1798:1837   */\n      tag_137\n        /* \"#utility.yul\":1831:1836   */\n      dup3\n        /* \"#utility.yul\":1798:1837   */\n      tag_76\n      jump\t// in\n    tag_137:\n        /* \"#utility.yul\":1853:1924   */\n      tag_138\n        /* \"#utility.yul\":1917:1923   */\n      dup2\n        /* \"#utility.yul\":1912:1915   */\n      dup6\n        /* \"#utility.yul\":1853:1924   */\n      tag_77\n      jump\t// in\n    tag_138:\n        /* \"#utility.yul\":1846:1924   */\n      swap4\n      pop\n        /* \"#utility.yul\":1933:1998   */\n      tag_139\n        /* \"#utility.yul\":1991:1997   */\n      dup2\n        /* \"#utility.yul\":1986:1989   */\n      dup6\n        /* \"#utility.yul\":1979:1983   */\n      0x20\n        /* \"#utility.yul\":1972:1977   */\n      dup7\n        /* \"#utility.yul\":1968:1984   */\n      add\n        /* \"#utility.yul\":1933:1998   */\n      tag_78\n      jump\t// in\n    tag_139:\n        /* \"#utility.yul\":2023:2052   */\n      tag_140\n        /* \"#utility.yul\":2045:2051   */\n      dup2\n        /* \"#utility.yul\":2023:2052   */\n      tag_79\n      jump\t// in\n    tag_140:\n        /* \"#utility.yul\":2018:2021   */\n      dup5\n        /* \"#utility.yul\":2014:2053   */\n      add\n        /* \"#utility.yul\":2007:2053   */\n      swap2\n      pop\n        /* \"#utility.yul\":1774:2059   */\n      pop\n        /* \"#utility.yul\":1682:2059   */\n      swap3\n      swap2\n      pop\n      pop\n      jump\t// out\n        /* \"#utility.yul\":2065:2191   */\n    tag_81:\n        /* \"#utility.yul\":2102:2109   */\n      0x00\n        /* \"#utility.yul\":2142:2184   */\n      0xffffffffffffffffffffffffffffffffffffffff\n        /* \"#utility.yul\":2135:2140   */\n      dup3\n        /* \"#utility.yul\":2131:2185   */\n      and\n        /* \"#utility.yul\":2120:2185   */\n      swap1\n      pop\n        /* \"#utility.yul\":2065:2191   */\n      swap2\n      swap1\n      pop\n      jump\t// out\n        /* \"#utility.yul\":2197:2293   */\n    tag_82:\n        /* \"#utility.yul\":2234:2241   */\n      0x00\n        /* \"#utility.yul\":2263:2287   */\n      tag_143\n        /* \"#utility.yul\":2281:2286   */\n      dup3\n        /* \"#utility.yul\":2263:2287   */\n      tag_81\n      jump\t// in\n    tag_143:\n        /* \"#utility.yul\":2252:2287   */\n      swap1\n      pop\n        /* \"#utility.yul\":2197:2293   */\n      swap2\n      swap1\n      pop\n      jump\t// out\n        /* \"#utility.yul\":2299:2417   */\n    tag_83:\n        /* \"#utility.yul\":2386:2410   */\n      tag_145\n        /* \"#utility.yul\":2404:2409   */\n      dup2\n        /* \"#utility.yul\":2386:2410   */\n      tag_82\n      jump\t// in\n    tag_145:\n        /* \"#utility.yul\":2381:2384   */\n      dup3\n        /* \"#utility.yul\":2374:2411   */\n      mstore\n        /* \"#utility.yul\":2299:2417   */\n      pop\n      pop\n      jump\t// out\n        /* \"#utility.yul\":2423:2513   */\n    tag_84:\n        /* \"#utility.yul\":2457:2464   */\n      0x00\n        /* \"#utility.yul\":2500:2505   */\n      dup2\n        /* \"#utility.yul\":2493:2506   */\n      iszero\n        /* \"#utility.yul\":2486:2507   */\n      iszero\n        /* \"#utility.yul\":2475:2507   */\n      swap1\n      pop\n        /* \"#utility.yul\":2423:2513   */\n      swap2\n      swap1\n      pop\n      jump\t// out\n        /* \"#utility.yul\":2519:2628   */\n    tag_85:\n        /* \"#utility.yul\":2600:2621   */\n      tag_148\n        /* \"#utility.yul\":2615:2620   */\n      dup2\n        /* \"#utility.yul\":2600:2621   */\n      tag_84\n      jump\t// in\n    tag_148:\n        /* \"#utility.yul\":2595:2598   */\n      dup3\n        /* \"#utility.yul\":2588:2622   */\n      mstore\n        /* \"#utility.yul\":2519:2628   */\n      pop\n      pop\n      jump\t// out\n        /* \"#utility.yul\":2634:3579   */\n    tag_13:\n        /* \"#utility.yul\":2901:2905   */\n      0x00\n        /* \"#utility.yul\":2939:2942   */\n      0xc0\n        /* \"#utility.yul\":2928:2937   */\n      dup3\n        /* \"#utility.yul\":2924:2943   */\n      add\n        /* \"#utility.yul\":2916:2943   */\n      swap1\n      pop\n        /* \"#utility.yul\":2953:3024   */\n      tag_150\n        /* \"#utility.yul\":3021:3022   */\n      0x00\n        /* \"#utility.yul\":3010:3019   */\n      dup4\n        /* \"#utility.yul\":3006:3023   */\n      add\n        /* \"#utility.yul\":2997:3003   */\n      dup10\n        /* \"#utility.yul\":2953:3024   */\n      tag_75\n      jump\t// in\n    tag_150:\n        /* \"#utility.yul\":3071:3080   */\n      dup2\n        /* \"#utility.yul\":3065:3069   */\n      dup2\n        /* \"#utility.yul\":3061:3081   */\n      sub\n        /* \"#utility.yul\":3056:3058   */\n      0x20\n        /* \"#utility.yul\":3045:3054   */\n      dup4\n        /* \"#utility.yul\":3041:3059   */\n      add\n        /* \"#utility.yul\":3034:3082   */\n      mstore\n        /* \"#utility.yul\":3099:3177   */\n      tag_151\n        /* \"#utility.yul\":3172:3176   */\n      dup2\n        /* \"#utility.yul\":3163:3169   */\n      dup9\n        /* \"#utility.yul\":3099:3177   */\n      tag_80\n      jump\t// in\n    tag_151:\n        /* \"#utility.yul\":3091:3177   */\n      swap1\n      pop\n        /* \"#utility.yul\":3224:3233   */\n      dup2\n        /* \"#utility.yul\":3218:3222   */\n      dup2\n        /* \"#utility.yul\":3214:3234   */\n      sub\n        /* \"#utility.yul\":3209:3211   */\n      0x40\n        /* \"#utility.yul\":3198:3207   */\n      dup4\n        /* \"#utility.yul\":3194:3212   */\n      add\n        /* \"#utility.yul\":3187:3235   */\n      mstore\n        /* \"#utility.yul\":3252:3330   */\n      tag_152\n        /* \"#utility.yul\":3325:3329   */\n      dup2\n        /* \"#utility.yul\":3316:3322   */\n      dup8\n        /* \"#utility.yul\":3252:3330   */\n      tag_80\n      jump\t// in\n    tag_152:\n        /* \"#utility.yul\":3244:3330   */\n      swap1\n      pop\n        /* \"#utility.yul\":3340:3412   */\n      tag_153\n        /* \"#utility.yul\":3408:3410   */\n      0x60\n        /* \"#utility.yul\":3397:3406   */\n      dup4\n        /* \"#utility.yul\":3393:3411   */\n      add\n        /* \"#utility.yul\":3384:3390   */\n      dup7\n        /* \"#utility.yul\":3340:3412   */\n      tag_83\n      jump\t// in\n    tag_153:\n        /* \"#utility.yul\":3422:3495   */\n      tag_154\n        /* \"#utility.yul\":3490:3493   */\n      0x80\n        /* \"#utility.yul\":3479:3488   */\n      dup4\n        /* \"#utility.yul\":3475:3494   */\n      add\n        /* \"#utility.yul\":3466:3472   */\n      dup6\n        /* \"#utility.yul\":3422:3495   */\n      tag_83\n      jump\t// in\n    tag_154:\n        /* \"#utility.yul\":3505:3572   */\n      tag_155\n        /* \"#utility.yul\":3567:3570   */\n      0xa0\n        /* \"#utility.yul\":3556:3565   */\n      dup4\n        /* \"#utility.yul\":3552:3571   */\n      add\n        /* \"#utility.yul\":3543:3549   */\n      dup5\n        /* \"#utility.yul\":3505:3572   */\n      tag_85\n      jump\t// in\n    tag_155:\n        /* \"#utility.yul\":2634:3579   */\n      swap8\n      swap7\n      pop\n      pop\n      pop\n      pop\n      pop\n      pop\n      pop\n      jump\t// out\n        /* \"#utility.yul\":3585:3807   */\n    tag_17:\n        /* \"#utility.yul\":3678:3682   */\n      0x00\n        /* \"#utility.yul\":3716:3718   */\n      0x20\n        /* \"#utility.yul\":3705:3714   */\n      dup3\n        /* \"#utility.yul\":3701:3719   */\n      add\n        /* \"#utility.yul\":3693:3719   */\n      swap1\n      pop\n        /* \"#utility.yul\":3729:3800   */\n      tag_157\n        /* \"#utility.yul\":3797:3798   */\n      0x00\n        /* \"#utility.yul\":3786:3795   */\n      dup4\n        /* \"#utility.yul\":3782:3799   */\n      add\n        /* \"#utility.yul\":3773:3779   */\n      dup5\n        /* \"#utility.yul\":3729:3800   */\n      tag_75\n      jump\t// in\n    tag_157:\n        /* \"#utility.yul\":3585:3807   */\n      swap3\n      swap2\n      pop\n      pop\n      jump\t// out\n        /* \"#utility.yul\":3813:3930   */\n    tag_86:\n        /* \"#utility.yul\":3922:3923   */\n      0x00\n        /* \"#utility.yul\":3919:3920   */\n      dup1\n        /* \"#utility.yul\":3912:3924   */\n      revert\n        /* \"#utility.yul\":3936:4053   */\n    tag_87:\n        /* \"#utility.yul\":4045:4046   */\n      0x00\n        /* \"#utility.yul\":4042:4043   */\n      dup1\n        /* \"#utility.yul\":4035:4047   */\n      revert\n        /* \"#utility.yul\":4059:4239   */\n    tag_88:\n        /* \"#utility.yul\":4107:4184   */\n      0x4e487b7100000000000000000000000000000000000000000000000000000000\n        /* \"#utility.yul\":4104:4105   */\n      0x00\n        /* \"#utility.yul\":4097:4185   */\n      mstore\n        /* \"#utility.yul\":4204:4208   */\n      0x41\n        /* \"#utility.yul\":4201:4202   */\n      0x04\n        /* \"#utility.yul\":4194:4209   */\n      mstore\n        /* \"#utility.yul\":4228:4232   */\n      0x24\n        /* \"#utility.yul\":4225:4226   */\n      0x00\n        /* \"#utility.yul\":4218:4233   */\n      revert\n        /* \"#utility.yul\":4245:4526   */\n    tag_89:\n        /* \"#utility.yul\":4328:4355   */\n      tag_162\n        /* \"#utility.yul\":4350:4354   */\n      dup3\n        /* \"#utility.yul\":4328:4355   */\n      tag_79\n      jump\t// in\n    tag_162:\n        /* \"#utility.yul\":4320:4326   */\n      dup2\n        /* \"#utility.yul\":4316:4356   */\n      add\n        /* \"#utility.yul\":4458:4464   */\n      dup2\n        /* \"#utility.yul\":4446:4456   */\n      dup2\n        /* \"#utility.yul\":4443:4465   */\n      lt\n        /* \"#utility.yul\":4422:4440   */\n      0xffffffffffffffff\n        /* \"#utility.yul\":4410:4420   */\n      dup3\n        /* \"#utility.yul\":4407:4441   */\n      gt\n        /* \"#utility.yul\":4404:4466   */\n      or\n        /* \"#utility.yul\":4401:4489   */\n      iszero\n      tag_163\n      jumpi\n        /* \"#utility.yul\":4469:4487   */\n      tag_164\n      tag_88\n      jump\t// in\n    tag_164:\n        /* \"#utility.yul\":4401:4489   */\n    tag_163:\n        /* \"#utility.yul\":4509:4519   */\n      dup1\n        /* \"#utility.yul\":4505:4507   */\n      0x40\n        /* \"#utility.yul\":4498:4520   */\n      mstore\n        /* \"#utility.yul\":4288:4526   */\n      pop\n        /* \"#utility.yul\":4245:4526   */\n      pop\n      pop\n      jump\t// out\n        /* \"#utility.yul\":4532:4661   */\n    tag_90:\n        /* \"#utility.yul\":4566:4572   */\n      0x00\n        /* \"#utility.yul\":4593:4613   */\n      tag_166\n      tag_69\n      jump\t// in\n    tag_166:\n        /* \"#utility.yul\":4583:4613   */\n      swap1\n      pop\n        /* \"#utility.yul\":4622:4655   */\n      tag_167\n        /* \"#utility.yul\":4650:4654   */\n      dup3\n        /* \"#utility.yul\":4642:4648   */\n      dup3\n        /* \"#utility.yul\":4622:4655   */\n      tag_89\n      jump\t// in\n    tag_167:\n        /* \"#utility.yul\":4532:4661   */\n      swap2\n      swap1\n      pop\n      jump\t// out\n        /* \"#utility.yul\":4667:4975   */\n    tag_91:\n        /* \"#utility.yul\":4729:4733   */\n      0x00\n        /* \"#utility.yul\":4819:4837   */\n      0xffffffffffffffff\n        /* \"#utility.yul\":4811:4817   */\n      dup3\n        /* \"#utility.yul\":4808:4838   */\n      gt\n        /* \"#utility.yul\":4805:4861   */\n      iszero\n      tag_169\n      jumpi\n        /* \"#utility.yul\":4841:4859   */\n      tag_170\n      tag_88\n      jump\t// in\n    tag_170:\n        /* \"#utility.yul\":4805:4861   */\n    tag_169:\n        /* \"#utility.yul\":4879:4908   */\n      tag_171\n        /* \"#utility.yul\":4901:4907   */\n      dup3\n        /* \"#utility.yul\":4879:4908   */\n      tag_79\n      jump\t// in\n    tag_171:\n        /* \"#utility.yul\":4871:4908   */\n      swap1\n      pop\n        /* \"#utility.yul\":4963:4967   */\n      0x20\n        /* \"#utility.yul\":4957:4961   */\n      dup2\n        /* \"#utility.yul\":4953:4968   */\n      add\n        /* \"#utility.yul\":4945:4968   */\n      swap1\n      pop\n        /* \"#utility.yul\":4667:4975   */\n      swap2\n      swap1\n      pop\n      jump\t// out\n        /* \"#utility.yul\":4981:5129   */\n    tag_92:\n        /* \"#utility.yul\":5079:5085   */\n      dup3\n        /* \"#utility.yul\":5074:5077   */\n      dup2\n        /* \"#utility.yul\":5069:5072   */\n      dup4\n        /* \"#utility.yul\":5056:5086   */\n      calldatacopy\n        /* \"#utility.yul\":5120:5121   */\n      0x00\n        /* \"#utility.yul\":5111:5117   */\n      dup4\n        /* \"#utility.yul\":5106:5109   */\n      dup4\n        /* \"#utility.yul\":5102:5118   */\n      add\n        /* \"#utility.yul\":5095:5122   */\n      mstore\n        /* \"#utility.yul\":4981:5129   */\n      pop\n      pop\n      pop\n      jump\t// out\n        /* \"#utility.yul\":5135:5560   */\n    tag_93:\n        /* \"#utility.yul\":5213:5218   */\n      0x00\n        /* \"#utility.yul\":5238:5304   */\n      tag_174\n        /* \"#utility.yul\":5254:5303   */\n      tag_175\n        /* \"#utility.yul\":5296:5302   */\n      dup5\n        /* \"#utility.yul\":5254:5303   */\n      tag_91\n      jump\t// in\n    tag_175:\n        /* \"#utility.yul\":5238:5304   */\n      tag_90\n      jump\t// in\n    tag_174:\n        /* \"#utility.yul\":5229:5304   */\n      swap1\n      pop\n        /* \"#utility.yul\":5327:5333   */\n      dup3\n        /* \"#utility.yul\":5320:5325   */\n      dup2\n        /* \"#utility.yul\":5313:5334   */\n      mstore\n        /* \"#utility.yul\":5365:5369   */\n      0x20\n        /* \"#utility.yul\":5358:5363   */\n      dup2\n        /* \"#utility.yul\":5354:5370   */\n      add\n        /* \"#utility.yul\":5403:5406   */\n      dup5\n        /* \"#utility.yul\":5394:5400   */\n      dup5\n        /* \"#utility.yul\":5389:5392   */\n      dup5\n        /* \"#utility.yul\":5385:5401   */\n      add\n        /* \"#utility.yul\":5382:5407   */\n      gt\n        /* \"#utility.yul\":5379:5491   */\n      iszero\n      tag_176\n      jumpi\n        /* \"#utility.yul\":5410:5489   */\n      tag_177\n      tag_87\n      jump\t// in\n    tag_177:\n        /* \"#utility.yul\":5379:5491   */\n    tag_176:\n        /* \"#utility.yul\":5500:5554   */\n      tag_178\n        /* \"#utility.yul\":5547:5553   */\n      dup5\n        /* \"#utility.yul\":5542:5545   */\n      dup3\n        /* \"#utility.yul\":5537:5540   */\n      dup6\n        /* \"#utility.yul\":5500:5554   */\n      tag_92\n      jump\t// in\n    tag_178:\n        /* \"#utility.yul\":5219:5560   */\n      pop\n        /* \"#utility.yul\":5135:5560   */\n      swap4\n      swap3\n      pop\n      pop\n      pop\n      jump\t// out\n        /* \"#utility.yul\":5580:5920   */\n    tag_94:\n        /* \"#utility.yul\":5636:5641   */\n      0x00\n        /* \"#utility.yul\":5685:5688   */\n      dup3\n        /* \"#utility.yul\":5678:5682   */\n      0x1f\n        /* \"#utility.yul\":5670:5676   */\n      dup4\n        /* \"#utility.yul\":5666:5683   */\n      add\n        /* \"#utility.yul\":5662:5689   */\n      slt\n        /* \"#utility.yul\":5652:5774   */\n      tag_180\n      jumpi\n        /* \"#utility.yul\":5693:5772   */\n      tag_181\n      tag_86\n      jump\t// in\n    tag_181:\n        /* \"#utility.yul\":5652:5774   */\n    tag_180:\n        /* \"#utility.yul\":5810:5816   */\n      dup2\n        /* \"#utility.yul\":5797:5817   */\n      calldataload\n        /* \"#utility.yul\":5835:5914   */\n      tag_182\n        /* \"#utility.yul\":5910:5913   */\n      dup5\n        /* \"#utility.yul\":5902:5908   */\n      dup3\n        /* \"#utility.yul\":5895:5899   */\n      0x20\n        /* \"#utility.yul\":5887:5893   */\n      dup7\n        /* \"#utility.yul\":5883:5900   */\n      add\n        /* \"#utility.yul\":5835:5914   */\n      tag_93\n      jump\t// in\n    tag_182:\n        /* \"#utility.yul\":5826:5914   */\n      swap2\n      pop\n        /* \"#utility.yul\":5642:5920   */\n      pop\n        /* \"#utility.yul\":5580:5920   */\n      swap3\n      swap2\n      pop\n      pop\n      jump\t// out\n        /* \"#utility.yul\":5926:6760   */\n    tag_20:\n        /* \"#utility.yul\":6014:6020   */\n      0x00\n        /* \"#utility.yul\":6022:6028   */\n      dup1\n        /* \"#utility.yul\":6071:6073   */\n      0x40\n        /* \"#utility.yul\":6059:6068   */\n      dup4\n        /* \"#utility.yul\":6050:6057   */\n      dup6\n        /* \"#utility.yul\":6046:6069   */\n      sub\n        /* \"#utility.yul\":6042:6074   */\n      slt\n        /* \"#utility.yul\":6039:6158   */\n      iszero\n      tag_184\n      jumpi\n        /* \"#utility.yul\":6077:6156   */\n      tag_185\n      tag_70\n      jump\t// in\n    tag_185:\n        /* \"#utility.yul\":6039:6158   */\n    tag_184:\n        /* \"#utility.yul\":6225:6226   */\n      0x00\n        /* \"#utility.yul\":6214:6223   */\n      dup4\n        /* \"#utility.yul\":6210:6227   */\n      add\n        /* \"#utility.yul\":6197:6228   */\n      calldataload\n        /* \"#utility.yul\":6255:6273   */\n      0xffffffffffffffff\n        /* \"#utility.yul\":6247:6253   */\n      dup2\n        /* \"#utility.yul\":6244:6274   */\n      gt\n        /* \"#utility.yul\":6241:6358   */\n      iszero\n      tag_186\n      jumpi\n        /* \"#utility.yul\":6277:6356   */\n      tag_187\n      tag_71\n      jump\t// in\n    tag_187:\n        /* \"#utility.yul\":6241:6358   */\n    tag_186:\n        /* \"#utility.yul\":6382:6445   */\n      tag_188\n        /* \"#utility.yul\":6437:6444   */\n      dup6\n        /* \"#utility.yul\":6428:6434   */\n      dup3\n        /* \"#utility.yul\":6417:6426   */\n      dup7\n        /* \"#utility.yul\":6413:6435   */\n      add\n        /* \"#utility.yul\":6382:6445   */\n      tag_94\n      jump\t// in\n    tag_188:\n        /* \"#utility.yul\":6372:6445   */\n      swap3\n      pop\n        /* \"#utility.yul\":6168:6455   */\n      pop\n        /* \"#utility.yul\":6522:6524   */\n      0x20\n        /* \"#utility.yul\":6511:6520   */\n      dup4\n        /* \"#utility.yul\":6507:6525   */\n      add\n        /* \"#utility.yul\":6494:6526   */\n      calldataload\n        /* \"#utility.yul\":6553:6571   */\n      0xffffffffffffffff\n        /* \"#utility.yul\":6545:6551   */\n      dup2\n        /* \"#utility.yul\":6542:6572   */\n      gt\n        /* \"#utility.yul\":6539:6656   */\n      iszero\n      tag_189\n      jumpi\n        /* \"#utility.yul\":6575:6654   */\n      tag_190\n      tag_71\n      jump\t// in\n    tag_190:\n        /* \"#utility.yul\":6539:6656   */\n    tag_189:\n        /* \"#utility.yul\":6680:6743   */\n      tag_191\n        /* \"#utility.yul\":6735:6742   */\n      dup6\n        /* \"#utility.yul\":6726:6732   */\n      dup3\n        /* \"#utility.yul\":6715:6724   */\n      dup7\n        /* \"#utility.yul\":6711:6733   */\n      add\n        /* \"#utility.yul\":6680:6743   */\n      tag_94\n      jump\t// in\n    tag_191:\n        /* \"#utility.yul\":6670:6743   */\n      swap2\n      pop\n        /* \"#utility.yul\":6465:6753   */\n      pop\n        /* \"#utility.yul\":5926:6760   */\n      swap3\n      pop\n      swap3\n      swap1\n      pop\n      jump\t// out\n        /* \"#utility.yul\":6766:7600   */\n    tag_26:\n        /* \"#utility.yul\":7005:7009   */\n      0x00\n        /* \"#utility.yul\":7043:7046   */\n      0xa0\n        /* \"#utility.yul\":7032:7041   */\n      dup3\n        /* \"#utility.yul\":7028:7047   */\n      add\n        /* \"#utility.yul\":7020:7047   */\n      swap1\n      pop\n        /* \"#utility.yul\":7093:7102   */\n      dup2\n        /* \"#utility.yul\":7087:7091   */\n      dup2\n        /* \"#utility.yul\":7083:7103   */\n      sub\n        /* \"#utility.yul\":7079:7080   */\n      0x00\n        /* \"#utility.yul\":7068:7077   */\n      dup4\n        /* \"#utility.yul\":7064:7081   */\n      add\n        /* \"#utility.yul\":7057:7104   */\n      mstore\n        /* \"#utility.yul\":7121:7199   */\n      tag_193\n        /* \"#utility.yul\":7194:7198   */\n      dup2\n        /* \"#utility.yul\":7185:7191   */\n      dup9\n        /* \"#utility.yul\":7121:7199   */\n      tag_80\n      jump\t// in\n    tag_193:\n        /* \"#utility.yul\":7113:7199   */\n      swap1\n      pop\n        /* \"#utility.yul\":7246:7255   */\n      dup2\n        /* \"#utility.yul\":7240:7244   */\n      dup2\n        /* \"#utility.yul\":7236:7256   */\n      sub\n        /* \"#utility.yul\":7231:7233   */\n      0x20\n        /* \"#utility.yul\":7220:7229   */\n      dup4\n        /* \"#utility.yul\":7216:7234   */\n      add\n        /* \"#utility.yul\":7209:7257   */\n      mstore\n        /* \"#utility.yul\":7274:7352   */\n      tag_194\n        /* \"#utility.yul\":7347:7351   */\n      dup2\n        /* \"#utility.yul\":7338:7344   */\n      dup8\n        /* \"#utility.yul\":7274:7352   */\n      tag_80\n      jump\t// in\n    tag_194:\n        /* \"#utility.yul\":7266:7352   */\n      swap1\n      pop\n        /* \"#utility.yul\":7362:7434   */\n      tag_195\n        /* \"#utility.yul\":7430:7432   */\n      0x40\n        /* \"#utility.yul\":7419:7428   */\n      dup4\n        /* \"#utility.yul\":7415:7433   */\n      add\n        /* \"#utility.yul\":7406:7412   */\n      dup7\n        /* \"#utility.yul\":7362:7434   */\n      tag_83\n      jump\t// in\n    tag_195:\n        /* \"#utility.yul\":7444:7516   */\n      tag_196\n        /* \"#utility.yul\":7512:7514   */\n      0x60\n        /* \"#utility.yul\":7501:7510   */\n      dup4\n        /* \"#utility.yul\":7497:7515   */\n      add\n        /* \"#utility.yul\":7488:7494   */\n      dup6\n        /* \"#utility.yul\":7444:7516   */\n      tag_83\n      jump\t// in\n    tag_196:\n        /* \"#utility.yul\":7526:7593   */\n      tag_197\n        /* \"#utility.yul\":7588:7591   */\n      0x80\n        /* \"#utility.yul\":7577:7586   */\n      dup4\n        /* \"#utility.yul\":7573:7592   */\n      add\n        /* \"#utility.yul\":7564:7570   */\n      dup5\n        /* \"#utility.yul\":7526:7593   */\n      tag_85\n      jump\t// in\n    tag_197:\n        /* \"#utility.yul\":6766:7600   */\n      swap7\n      swap6\n      pop\n      pop\n      pop\n      pop\n      pop\n      pop\n      jump\t// out\n        /* \"#utility.yul\":7606:7786   */\n    tag_95:\n        /* \"#utility.yul\":7654:7731   */\n      0x4e487b7100000000000000000000000000000000000000000000000000000000\n        /* \"#utility.yul\":7651:7652   */\n      0x00\n        /* \"#utility.yul\":7644:7732   */\n      mstore\n        /* \"#utility.yul\":7751:7755   */\n      0x22\n        /* \"#utility.yul\":7748:7749   */\n      0x04\n        /* \"#utility.yul\":7741:7756   */\n      mstore\n        /* \"#utility.yul\":7775:7779   */\n      0x24\n        /* \"#utility.yul\":7772:7773   */\n      0x00\n        /* \"#utility.yul\":7765:7780   */\n      revert\n        /* \"#utility.yul\":7792:8112   */\n    tag_31:\n        /* \"#utility.yul\":7836:7842   */\n      0x00\n        /* \"#utility.yul\":7873:7874   */\n      0x02\n        /* \"#utility.yul\":7867:7871   */\n      dup3\n        /* \"#utility.yul\":7863:7875   */\n      div\n        /* \"#utility.yul\":7853:7875   */\n      swap1\n      pop\n        /* \"#utility.yul\":7920:7921   */\n      0x01\n        /* \"#utility.yul\":7914:7918   */\n      dup3\n        /* \"#utility.yul\":7910:7922   */\n      and\n        /* \"#utility.yul\":7941:7959   */\n      dup1\n        /* \"#utility.yul\":7931:8012   */\n      tag_200\n      jumpi\n        /* \"#utility.yul\":7997:8001   */\n      0x7f\n        /* \"#utility.yul\":7989:7995   */\n      dup3\n        /* \"#utility.yul\":7985:8002   */\n      and\n        /* \"#utility.yul\":7975:8002   */\n      swap2\n      pop\n        /* \"#utility.yul\":7931:8012   */\n    tag_200:\n        /* \"#utility.yul\":8059:8061   */\n      0x20\n        /* \"#utility.yul\":8051:8057   */\n      dup3\n        /* \"#utility.yul\":8048:8062   */\n      lt\n        /* \"#utility.yul\":8028:8046   */\n      dup2\n        /* \"#utility.yul\":8025:8063   */\n      sub\n        /* \"#utility.yul\":8022:8106   */\n      tag_201\n      jumpi\n        /* \"#utility.yul\":8078:8096   */\n      tag_202\n      tag_95\n      jump\t// in\n    tag_202:\n        /* \"#utility.yul\":8022:8106   */\n    tag_201:\n        /* \"#utility.yul\":7843:8112   */\n      pop\n        /* \"#utility.yul\":7792:8112   */\n      swap2\n      swap1\n      pop\n      jump\t// out\n        /* \"#utility.yul\":8118:8298   */\n    tag_96:\n        /* \"#utility.yul\":8166:8243   */\n      0x4e487b7100000000000000000000000000000000000000000000000000000000\n        /* \"#utility.yul\":8163:8164   */\n      0x00\n        /* \"#utility.yul\":8156:8244   */\n      mstore\n        /* \"#utility.yul\":8263:8267   */\n      0x11\n        /* \"#utility.yul\":8260:8261   */\n      0x04\n        /* \"#utility.yul\":8253:8268   */\n      mstore\n        /* \"#utility.yul\":8287:8291   */\n      0x24\n        /* \"#utility.yul\":8284:8285   */\n      0x00\n        /* \"#utility.yul\":8277:8292   */\n      revert\n        /* \"#utility.yul\":8304:8537   */\n    tag_43:\n        /* \"#utility.yul\":8343:8346   */\n      0x00\n        /* \"#utility.yul\":8366:8390   */\n      tag_205\n        /* \"#utility.yul\":8384:8389   */\n      dup3\n        /* \"#utility.yul\":8366:8390   */\n      tag_72\n      jump\t// in\n    tag_205:\n        /* \"#utility.yul\":8357:8390   */\n      swap2\n      pop\n        /* \"#utility.yul\":8412:8478   */\n      0xffffffffffffffffffffffffffffffffffffffffffffffffffffffffffffffff\n        /* \"#utility.yul\":8405:8410   */\n      dup3\n        /* \"#utility.yul\":8402:8479   */\n      sub\n        /* \"#utility.yul\":8399:8502   */\n      tag_206\n      jumpi\n        /* \"#utility.yul\":8482:8500   */\n      tag_207\n      tag_96\n      jump\t// in\n    tag_207:\n        /* \"#utility.yul\":8399:8502   */\n    tag_206:\n        /* \"#utility.yul\":8529:8530   */\n      0x01\n        /* \"#utility.yul\":8522:8527   */\n      dup3\n        /* \"#utility.yul\":8518:8531   */\n      add\n        /* \"#utility.yul\":8511:8531   */\n      swap1\n      pop\n        /* \"#utility.yul\":8304:8537   */\n      swap2\n      swap1\n      pop\n      jump\t// out\n        /* \"#utility.yul\":8543:8684   */\n    tag_97:\n        /* \"#utility.yul\":8592:8596   */\n      0x00\n        /* \"#utility.yul\":8615:8618   */\n      dup2\n        /* \"#utility.yul\":8607:8618   */\n      swap1\n      pop\n        /* \"#utility.yul\":8638:8641   */\n      dup2\n        /* \"#utility.yul\":8635:8636   */\n      0x00\n        /* \"#utility.yul\":8628:8642   */\n      mstore\n        /* \"#utility.yul\":8672:8676   */\n      0x20\n        /* \"#utility.yul\":8669:8670   */\n      0x00\n        /* \"#utility.yul\":8659:8677   */\n      keccak256\n        /* \"#utility.yul\":8651:8677   */\n      swap1\n      pop\n        /* \"#utility.yul\":8543:8684   */\n      swap2\n      swap1\n      pop\n      jump\t// out\n        /* \"#utility.yul\":8690:8783   */\n    tag_98:\n        /* \"#utility.yul\":8727:8733   */\n      0x00\n        /* \"#utility.yul\":8774:8776   */\n      0x20\n        /* \"#utility.yul\":8769:8771   */\n      0x1f\n        /* \"#utility.yul\":8762:8767   */\n      dup4\n        /* \"#utility.yul\":8758:8772   */\n      add\n        /* \"#utility.yul\":8754:8777   */\n      div\n        /* \"#utility.yul\":8744:8777   */\n      swap1\n      pop\n        /* \"#utility.yul\":8690:8783   */\n      swap2\n      swap1\n      pop\n      jump\t// out\n        /* \"#utility.yul\":8789:8896   */\n    tag_99:\n        /* \"#utility.yul\":8833:8841   */\n      0x00\n        /* \"#utility.yul\":8883:8888   */\n      dup3\n        /* \"#utility.yul\":8877:8881   */\n      dup3\n        /* \"#utility.yul\":8873:8889   */\n      shl\n        /* \"#utility.yul\":8852:8889   */\n      swap1\n      pop\n        /* \"#utility.yul\":8789:8896   */\n      swap3\n      swap2\n      pop\n      pop\n      jump\t// out\n        /* \"#utility.yul\":8902:9295   */\n    tag_100:\n        /* \"#utility.yul\":8971:8977   */\n      0x00\n        /* \"#utility.yul\":9021:9022   */\n      0x08\n        /* \"#utility.yul\":9009:9019   */\n      dup4\n        /* \"#utility.yul\":9005:9023   */\n      mul\n        /* \"#utility.yul\":9044:9141   */\n      tag_212\n        /* \"#utility.yul\":9074:9140   */\n      0xffffffffffffffffffffffffffffffffffffffffffffffffffffffffffffffff\n        /* \"#utility.yul\":9063:9072   */\n      dup3\n        /* \"#utility.yul\":9044:9141   */\n      tag_99\n      jump\t// in\n    tag_212:\n        /* \"#utility.yul\":9162:9201   */\n      tag_213\n        /* \"#utility.yul\":9192:9200   */\n      dup7\n        /* \"#utility.yul\":9181:9190   */\n      dup4\n        /* \"#utility.yul\":9162:9201   */\n      tag_99\n      jump\t// in\n    tag_213:\n        /* \"#utility.yul\":9150:9201   */\n      swap6\n      pop\n        /* \"#utility.yul\":9234:9238   */\n      dup1\n        /* \"#utility.yul\":9230:9239   */\n      not\n        /* \"#utility.yul\":9223:9228   */\n      dup5\n        /* \"#utility.yul\":9219:9240   */\n      and\n        /* \"#utility.yul\":9210:9240   */\n      swap4\n      pop\n        /* \"#utility.yul\":9283:9287   */\n      dup1\n        /* \"#utility.yul\":9273:9281   */\n      dup7\n        /* \"#utility.yul\":9269:9288   */\n      and\n        /* \"#utility.yul\":9262:9267   */\n      dup5\n        /* \"#utility.yul\":9259:9289   */\n      or\n        /* \"#utility.yul\":9249:9289   */\n      swap3\n      pop\n        /* \"#utility.yul\":8978:9295   */\n      pop\n      pop\n        /* \"#utility.yul\":8902:9295   */\n      swap4\n      swap3\n      pop\n      pop\n      pop\n      jump\t// out\n        /* \"#utility.yul\":9301:9361   */\n    tag_101:\n        /* \"#utility.yul\":9329:9332   */\n      0x00\n        /* \"#utility.yul\":9350:9355   */\n      dup2\n        /* \"#utility.yul\":9343:9355   */\n      swap1\n      pop\n        /* \"#utility.yul\":9301:9361   */\n      swap2\n      swap1\n      pop\n      jump\t// out\n        /* \"#utility.yul\":9367:9509   */\n    tag_102:\n        /* \"#utility.yul\":9417:9426   */\n      0x00\n        /* \"#utility.yul\":9450:9503   */\n      tag_216\n        /* \"#utility.yul\":9468:9502   */\n      tag_217\n        /* \"#utility.yul\":9477:9501   */\n      tag_218\n        /* \"#utility.yul\":9495:9500   */\n      dup5\n        /* \"#utility.yul\":9477:9501   */\n      tag_72\n      jump\t// in\n    tag_218:\n        /* \"#utility.yul\":9468:9502   */\n      tag_101\n      jump\t// in\n    tag_217:\n        /* \"#utility.yul\":9450:9503   */\n      tag_72\n      jump\t// in\n    tag_216:\n        /* \"#utility.yul\":9437:9503   */\n      swap1\n      pop\n        /* \"#utility.yul\":9367:9509   */\n      swap2\n      swap1\n      pop\n      jump\t// out\n        /* \"#utility.yul\":9515:9590   */\n    tag_103:\n        /* \"#utility.yul\":9558:9561   */\n      0x00\n        /* \"#utility.yul\":9579:9584   */\n      dup2\n        /* \"#utility.yul\":9572:9584   */\n      swap1\n      pop\n        /* \"#utility.yul\":9515:9590   */\n      swap2\n      swap1\n      pop\n      jump\t// out\n        /* \"#utility.yul\":9596:9865   */\n    tag_104:\n        /* \"#utility.yul\":9706:9745   */\n      tag_221\n        /* \"#utility.yul\":9737:9744   */\n      dup4\n        /* \"#utility.yul\":9706:9745   */\n      tag_102\n      jump\t// in\n    tag_221:\n        /* \"#utility.yul\":9767:9858   */\n      tag_222\n        /* \"#utility.yul\":9816:9857   */\n      tag_223\n        /* \"#utility.yul\":9840:9856   */\n      dup3\n        /* \"#utility.yul\":9816:9857   */\n      tag_103\n      jump\t// in\n    tag_223:\n        /* \"#utility.yul\":9808:9814   */\n      dup5\n        /* \"#utility.yul\":9801:9805   */\n      dup5\n        /* \"#utility.yul\":9795:9806   */\n      sload\n        /* \"#utility.yul\":9767:9858   */\n      tag_100\n      jump\t// in\n    tag_222:\n        /* \"#utility.yul\":9761:9765   */\n      dup3\n        /* \"#utility.yul\":9754:9859   */\n      sstore\n        /* \"#utility.yul\":9672:9865   */\n      pop\n        /* \"#utility.yul\":9596:9865   */\n      pop\n      pop\n      pop\n      jump\t// out\n        /* \"#utility.yul\":9871:9944   */\n    tag_105:\n        /* \"#utility.yul\":9916:9919   */\n      0x00\n        /* \"#utility.yul\":9871:9944   */\n      swap1\n      jump\t// out\n        /* \"#utility.yul\":9950:10139   */\n    tag_106:\n        /* \"#utility.yul\":10027:10059   */\n      tag_226\n      tag_105\n      jump\t// in\n    tag_226:\n        /* \"#utility.yul\":10068:10133   */\n      tag_227\n        /* \"#utility.yul\":10126:10132   */\n      dup2\n        /* \"#utility.yul\":10118:10124   */\n      dup5\n        /* \"#utility.yul\":10112:10116   */\n      dup5\n        /* \"#utility.yul\":10068:10133   */\n      tag_104\n      jump\t// in\n    tag_227:\n        /* \"#utility.yul\":10003:10139   */\n      pop\n        /* \"#utility.yul\":9950:10139   */\n      pop\n      pop\n      jump\t// out\n        /* \"#utility.yul\":10145:10331   */\n    tag_107:\n        /* \"#utility.yul\":10205:10325   */\n    tag_229:\n        /* \"#utility.yul\":10222:10225   */\n      dup2\n        /* \"#utility.yul\":10215:10220   */\n      dup2\n        /* \"#utility.yul\":10212:10226   */\n      lt\n        /* \"#utility.yul\":10205:10325   */\n      iszero\n      tag_231\n      jumpi\n        /* \"#utility.yul\":10276:10315   */\n      tag_232\n        /* \"#utility.yul\":10313:10314   */\n      0x00\n        /* \"#utility.yul\":10306:10311   */\n      dup3\n        /* \"#utility.yul\":10276:10315   */\n      tag_106\n      jump\t// in\n    tag_232:\n        /* \"#utility.yul\":10249:10250   */\n      0x01\n        /* \"#utility.yul\":10242:10247   */\n      dup2\n        /* \"#utility.yul\":10238:10251   */\n      add\n        /* \"#utility.yul\":10229:10251   */\n      swap1\n      pop\n        /* \"#utility.yul\":10205:10325   */\n      jump(tag_229)\n    tag_231:\n        /* \"#utility.yul\":10145:10331   */\n      pop\n      pop\n      jump\t// out\n        /* \"#utility.yul\":10337:10880   */\n    tag_108:\n        /* \"#utility.yul\":10438:10440   */\n      0x1f\n        /* \"#utility.yul\":10433:10436   */\n      dup3\n        /* \"#utility.yul\":10430:10441   */\n      gt\n        /* \"#utility.yul\":10427:10873   */\n      iszero\n      tag_234\n      jumpi\n        /* \"#utility.yul\":10472:10510   */\n      tag_235\n        /* \"#utility.yul\":10504:10509   */\n      dup2\n        /* \"#utility.yul\":10472:10510   */\n      tag_97\n      jump\t// in\n    tag_235:\n        /* \"#utility.yul\":10556:10585   */\n      tag_236\n        /* \"#utility.yul\":10574:10584   */\n      dup5\n        /* \"#utility.yul\":10556:10585   */\n      tag_98\n      jump\t// in\n    tag_236:\n        /* \"#utility.yul\":10546:10554   */\n      dup2\n        /* \"#utility.yul\":10542:10586   */\n      add\n        /* \"#utility.yul\":10739:10741   */\n      0x20\n        /* \"#utility.yul\":10727:10737   */\n      dup6\n        /* \"#utility.yul\":10724:10742   */\n      lt\n        /* \"#utility.yul\":10721:10770   */\n      iszero\n      tag_237\n      jumpi\n        /* \"#utility.yul\":10760:10768   */\n      dup2\n        /* \"#utility.yul\":10745:10768   */\n      swap1\n      pop\n        /* \"#utility.yul\":10721:10770   */\n    tag_237:\n        /* \"#utility.yul\":10783:10863   */\n      tag_238\n        /* \"#utility.yul\":10839:10861   */\n      tag_239\n        /* \"#utility.yul\":10857:10860   */\n      dup6\n        /* \"#utility.yul\":10839:10861   */\n      tag_98\n      jump\t// in\n    tag_239:\n        /* \"#utility.yul\":10829:10837   */\n      dup4\n        /* \"#utility.yul\":10825:10862   */\n      add\n        /* \"#utility.yul\":10812:10823   */\n      dup3\n        /* \"#utility.yul\":10783:10863   */\n      tag_107\n      jump\t// in\n    tag_238:\n        /* \"#utility.yul\":10442:10873   */\n      pop\n      pop\n        /* \"#utility.yul\":10427:10873   */\n    tag_234:\n        /* \"#utility.yul\":10337:10880   */\n      pop\n      pop\n      pop\n      jump\t// out\n        /* \"#utility.yul\":10886:11003   */\n    tag_109:\n        /* \"#utility.yul\":10940:10948   */\n      0x00\n        /* \"#utility.yul\":10990:10995   */\n      dup3\n        /* \"#utility.yul\":10984:10988   */\n      dup3\n        /* \"#utility.yul\":10980:10996   */\n      shr\n        /* \"#utility.yul\":10959:10996   */\n      swap1\n      pop\n        /* \"#utility.yul\":10886:11003   */\n      swap3\n      swap2\n      pop\n      pop\n      jump\t// out\n        /* \"#utility.yul\":11009:11178   */\n    tag_110:\n        /* \"#utility.yul\":11053:11059   */\n      0x00\n        /* \"#utility.yul\":11086:11137   */\n      tag_242\n        /* \"#utility.yul\":11134:11135   */\n      0x00\n        /* \"#utility.yul\":11130:11136   */\n      not\n        /* \"#utility.yul\":11122:11127   */\n      dup5\n        /* \"#utility.yul\":11119:11120   */\n      0x08\n        /* \"#utility.yul\":11115:11128   */\n      mul\n        /* \"#utility.yul\":11086:11137   */\n      tag_109\n      jump\t// in\n    tag_242:\n        /* \"#utility.yul\":11082:11138   */\n      not\n        /* \"#utility.yul\":11167:11171   */\n      dup1\n        /* \"#utility.yul\":11161:11165   */\n      dup4\n        /* \"#utility.yul\":11157:11172   */\n      and\n        /* \"#utility.yul\":11147:11172   */\n      swap2\n      pop\n        /* \"#utility.yul\":11060:11178   */\n      pop\n        /* \"#utility.yul\":11009:11178   */\n      swap3\n      swap2\n      pop\n      pop\n      jump\t// out\n        /* \"#utility.yul\":11183:11478   */\n    tag_111:\n        /* \"#utility.yul\":11259:11263   */\n      0x00\n        /* \"#utility.yul\":11405:11434   */\n      tag_244\n        /* \"#utility.yul\":11430:11433   */\n      dup4\n        /* \"#utility.yul\":11424:11428   */\n      dup4\n        /* \"#utility.yul\":11405:11434   */\n      tag_110\n      jump\t// in\n    tag_244:\n        /* \"#utility.yul\":11397:11434   */\n      swap2\n      pop\n        /* \"#utility.yul\":11467:11470   */\n      dup3\n        /* \"#utility.yul\":11464:11465   */\n      0x02\n        /* \"#utility.yul\":11460:11471   */\n      mul\n        /* \"#utility.yul\":11454:11458   */\n      dup3\n        /* \"#utility.yul\":11451:11472   */\n      or\n        /* \"#utility.yul\":11443:11472   */\n      swap1\n      pop\n        /* \"#utility.yul\":11183:11478   */\n      swap3\n      swap2\n      pop\n      pop\n      jump\t// out\n        /* \"#utility.yul\":11483:12878   */\n    tag_45:\n        /* \"#utility.yul\":11600:11637   */\n      tag_246\n        /* \"#utility.yul\":11633:11636   */\n      dup3\n        /* \"#utility.yul\":11600:11637   */\n      tag_76\n      jump\t// in\n    tag_246:\n        /* \"#utility.yul\":11702:11720   */\n      0xffffffffffffffff\n        /* \"#utility.yul\":11694:11700   */\n      dup2\n        /* \"#utility.yul\":11691:11721   */\n      gt\n        /* \"#utility.yul\":11688:11744   */\n      iszero\n      tag_247\n      jumpi\n        /* \"#utility.yul\":11724:11742   */\n      tag_248\n      tag_88\n      jump\t// in\n    tag_248:\n        /* \"#utility.yul\":11688:11744   */\n    tag_247:\n        /* \"#utility.yul\":11768:11806   */\n      tag_249\n        /* \"#utility.yul\":11800:11804   */\n      dup3\n        /* \"#utility.yul\":11794:11805   */\n      sload\n        /* \"#utility.yul\":11768:11806   */\n      tag_31\n      jump\t// in\n    tag_249:\n        /* \"#utility.yul\":11853:11920   */\n      tag_250\n        /* \"#utility.yul\":11913:11919   */\n      dup3\n        /* \"#utility.yul\":11905:11911   */\n      dup3\n        /* \"#utility.yul\":11899:11903   */\n      dup6\n        /* \"#utility.yul\":11853:11920   */\n      tag_108\n      jump\t// in\n    tag_250:\n        /* \"#utility.yul\":11947:11948   */\n      0x00\n        /* \"#utility.yul\":11971:11975   */\n      0x20\n        /* \"#utility.yul\":11958:11975   */\n      swap1\n      pop\n        /* \"#utility.yul\":12003:12005   */\n      0x1f\n        /* \"#utility.yul\":11995:12001   */\n      dup4\n        /* \"#utility.yul\":11992:12006   */\n      gt\n        /* \"#utility.yul\":12020:12021   */\n      0x01\n        /* \"#utility.yul\":12015:12633   */\n      dup2\n      eq\n      tag_252\n      jumpi\n        /* \"#utility.yul\":12677:12678   */\n      0x00\n        /* \"#utility.yul\":12694:12700   */\n      dup5\n        /* \"#utility.yul\":12691:12768   */\n      iszero\n      tag_253\n      jumpi\n        /* \"#utility.yul\":12743:12752   */\n      dup3\n        /* \"#utility.yul\":12738:12741   */\n      dup8\n        /* \"#utility.yul\":12734:12753   */\n      add\n        /* \"#utility.yul\":12728:12754   */\n      mload\n        /* \"#utility.yul\":12719:12754   */\n      swap1\n      pop\n        /* \"#utility.yul\":12691:12768   */\n    tag_253:\n        /* \"#utility.yul\":12794:12861   */\n      tag_254\n        /* \"#utility.yul\":12854:12860   */\n      dup6\n        /* \"#utility.yul\":12847:12852   */\n      dup3\n        /* \"#utility.yul\":12794:12861   */\n      tag_111\n      jump\t// in\n    tag_254:\n        /* \"#utility.yul\":12788:12792   */\n      dup7\n        /* \"#utility.yul\":12781:12862   */\n      sstore\n        /* \"#utility.yul\":12650:12872   */\n      pop\n        /* \"#utility.yul\":11985:12872   */\n      jump(tag_251)\n        /* \"#utility.yul\":12015:12633   */\n    tag_252:\n        /* \"#utility.yul\":12067:12071   */\n      0x1f\n        /* \"#utility.yul\":12063:12072   */\n      not\n        /* \"#utility.yul\":12055:12061   */\n      dup5\n        /* \"#utility.yul\":12051:12073   */\n      and\n        /* \"#utility.yul\":12101:12138   */\n      tag_255\n        /* \"#utility.yul\":12133:12137   */\n      dup7\n        /* \"#utility.yul\":12101:12138   */\n      tag_97\n      jump\t// in\n    tag_255:\n        /* \"#utility.yul\":12160:12161   */\n      0x00\n        /* \"#utility.yul\":12174:12382   */\n    tag_256:\n        /* \"#utility.yul\":12188:12195   */\n      dup3\n        /* \"#utility.yul\":12185:12186   */\n      dup2\n        /* \"#utility.yul\":12182:12196   */\n      lt\n        /* \"#utility.yul\":12174:12382   */\n      iszero\n      tag_258\n      jumpi\n        /* \"#utility.yul\":12267:12276   */\n      dup5\n        /* \"#utility.yul\":12262:12265   */\n      dup10\n        /* \"#utility.yul\":12258:12277   */\n      add\n        /* \"#utility.yul\":12252:12278   */\n      mload\n        /* \"#utility.yul\":12244:12250   */\n      dup3\n        /* \"#utility.yul\":12237:12279   */\n      sstore\n        /* \"#utility.yul\":12318:12319   */\n      0x01\n        /* \"#utility.yul\":12310:12316   */\n      dup3\n        /* \"#utility.yul\":12306:12320   */\n      add\n        /* \"#utility.yul\":12296:12320   */\n      swap2\n      pop\n        /* \"#utility.yul\":12365:12367   */\n      0x20\n        /* \"#utility.yul\":12354:12363   */\n      dup6\n        /* \"#utility.yul\":12350:12368   */\n      add\n        /* \"#utility.yul\":12337:12368   */\n      swap5\n      pop\n        /* \"#utility.yul\":12211:12215   */\n      0x20\n        /* \"#utility.yul\":12208:12209   */\n      dup2\n        /* \"#utility.yul\":12204:12216   */\n      add\n        /* \"#utility.yul\":12199:12216   */\n      swap1\n      pop\n        /* \"#utility.yul\":12174:12382   */\n      jump(tag_256)\n    tag_258:\n        /* \"#utility.yul\":12410:12416   */\n      dup7\n        /* \"#utility.yul\":12401:12408   */\n      dup4\n        /* \"#utility.yul\":12398:12417   */\n      lt\n        /* \"#utility.yul\":12395:12574   */\n      iszero\n      tag_259\n      jumpi\n        /* \"#utility.yul\":12468:12477   */\n      dup5\n        /* \"#utility.yul\":12463:12466   */\n      dup10\n        /* \"#utility.yul\":12459:12478   */\n      add\n        /* \"#utility.yul\":12453:12479   */\n      mload\n        /* \"#utility.yul\":12511:12559   */\n      tag_260\n        /* \"#utility.yul\":12553:12557   */\n      0x1f\n        /* \"#utility.yul\":12545:12551   */\n      dup10\n        /* \"#utility.yul\":12541:12558   */\n      and\n        /* \"#utility.yul\":12530:12539   */\n      dup3\n        /* \"#utility.yul\":12511:12559   */\n      tag_110\n      jump\t// in\n    tag_260:\n        /* \"#utility.yul\":12503:12509   */\n      dup4\n        /* \"#utility.yul\":12496:12560   */\n      sstore\n        /* \"#utility.yul\":12418:12574   */\n      pop\n        /* \"#utility.yul\":12395:12574   */\n    tag_259:\n        /* \"#utility.yul\":12620:12621   */\n      0x01\n        /* \"#utility.yul\":12616:12617   */\n      0x02\n        /* \"#utility.yul\":12608:12614   */\n      dup9\n        /* \"#utility.yul\":12604:12618   */\n      mul\n        /* \"#utility.yul\":12600:12622   */\n      add\n        /* \"#utility.yul\":12594:12598   */\n      dup9\n        /* \"#utility.yul\":12587:12623   */\n      sstore\n        /* \"#utility.yul\":12022:12633   */\n      pop\n      pop\n      pop\n        /* \"#utility.yul\":11985:12872   */\n    tag_251:\n      pop\n        /* \"#utility.yul\":11575:12878   */\n      pop\n      pop\n      pop\n        /* \"#utility.yul\":11483:12878   */\n      pop\n      pop\n      jump\t// out\n        /* \"#utility.yul\":12884:13417   */\n    tag_48:\n        /* \"#utility.yul\":13053:13057   */\n      0x00\n        /* \"#utility.yul\":13091:13093   */\n      0x60\n        /* \"#utility.yul\":13080:13089   */\n      dup3\n        /* \"#utility.yul\":13076:13094   */\n      add\n        /* \"#utility.yul\":13068:13094   */\n      swap1\n      pop\n        /* \"#utility.yul\":13104:13175   */\n      tag_262\n        /* \"#utility.yul\":13172:13173   */\n      0x00\n        /* \"#utility.yul\":13161:13170   */\n      dup4\n        /* \"#utility.yul\":13157:13174   */\n      add\n        /* \"#utility.yul\":13148:13154   */\n      dup7\n        /* \"#utility.yul\":13104:13175   */\n      tag_75\n      jump\t// in\n    tag_262:\n        /* \"#utility.yul\":13222:13231   */\n      dup2\n        /* \"#utility.yul\":13216:13220   */\n      dup2\n        /* \"#utility.yul\":13212:13232   */\n      sub\n        /* \"#utility.yul\":13207:13209   */\n      0x20\n        /* \"#utility.yul\":13196:13205   */\n      dup4\n        /* \"#utility.yul\":13192:13210   */\n      add\n        /* \"#utility.yul\":13185:13233   */\n      mstore\n        /* \"#utility.yul\":13250:13328   */\n      tag_263\n        /* \"#utility.yul\":13323:13327   */\n      dup2\n        /* \"#utility.yul\":13314:13320   */\n      dup6\n        /* \"#utility.yul\":13250:13328   */\n      tag_80\n      jump\t// in\n    tag_263:\n        /* \"#utility.yul\":13242:13328   */\n      swap1\n      pop\n        /* \"#utility.yul\":13338:13410   */\n      tag_264\n        /* \"#utility.yul\":13406:13408   */\n      0x40\n        /* \"#utility.yul\":13395:13404   */\n      dup4\n        /* \"#utility.yul\":13391:13409   */\n      add\n        /* \"#utility.yul\":13382:13388   */\n      dup5\n        /* \"#utility.yul\":13338:13410   */\n      tag_83\n      jump\t// in\n    tag_264:\n        /* \"#utility.yul\":12884:13417   */\n      swap5\n      swap4\n      pop\n      pop\n      pop\n      pop\n      jump\t// out\n        /* \"#utility.yul\":13423:13594   */\n    tag_112:\n        /* \"#utility.yul\":13563:13586   */\n      0x4a6f62206973206e6f206c6f6e676572206f70656e0000000000000000000000\n        /* \"#utility.yul\":13559:13560   */\n      0x00\n        /* \"#utility.yul\":13551:13557   */\n      dup3\n        /* \"#utility.yul\":13547:13561   */\n      add\n        /* \"#utility.yul\":13540:13587   */\n      mstore\n        /* \"#utility.yul\":13423:13594   */\n      pop\n      jump\t// out\n        /* \"#utility.yul\":13600:13966   */\n    tag_113:\n        /* \"#utility.yul\":13742:13745   */\n      0x00\n        /* \"#utility.yul\":13763:13830   */\n      tag_267\n        /* \"#utility.yul\":13827:13829   */\n      0x15\n        /* \"#utility.yul\":13822:13825   */\n      dup4\n        /* \"#utility.yul\":13763:13830   */\n      tag_77\n      jump\t// in\n    tag_267:\n        /* \"#utility.yul\":13756:13830   */\n      swap2\n      pop\n        /* \"#utility.yul\":13839:13932   */\n      tag_268\n        /* \"#utility.yul\":13928:13931   */\n      dup3\n        /* \"#utility.yul\":13839:13932   */\n      tag_112\n      jump\t// in\n    tag_268:\n        /* \"#utility.yul\":13957:13959   */\n      0x20\n        /* \"#utility.yul\":13952:13955   */\n      dup3\n        /* \"#utility.yul\":13948:13960   */\n      add\n        /* \"#utility.yul\":13941:13960   */\n      swap1\n      pop\n        /* \"#utility.yul\":13600:13966   */\n      swap2\n      swap1\n      pop\n      jump\t// out\n        /* \"#utility.yul\":13972:14391   */\n    tag_63:\n        /* \"#utility.yul\":14138:14142   */\n      0x00\n        /* \"#utility.yul\":14176:14178   */\n      0x20\n        /* \"#utility.yul\":14165:14174   */\n      dup3\n        /* \"#utility.yul\":14161:14179   */\n      add\n        /* \"#utility.yul\":14153:14179   */\n      swap1\n      pop\n        /* \"#utility.yul\":14225:14234   */\n      dup2\n        /* \"#utility.yul\":14219:14223   */\n      dup2\n        /* \"#utility.yul\":14215:14235   */\n      sub\n        /* \"#utility.yul\":14211:14212   */\n      0x00\n        /* \"#utility.yul\":14200:14209   */\n      dup4\n        /* \"#utility.yul\":14196:14213   */\n      add\n        /* \"#utility.yul\":14189:14236   */\n      mstore\n        /* \"#utility.yul\":14253:14384   */\n      tag_270\n        /* \"#utility.yul\":14379:14383   */\n      dup2\n        /* \"#utility.yul\":14253:14384   */\n      tag_113\n      jump\t// in\n    tag_270:\n        /* \"#utility.yul\":14245:14384   */\n      swap1\n      pop\n        /* \"#utility.yul\":13972:14391   */\n      swap2\n      swap1\n      pop\n      jump\t// out\n        /* \"#utility.yul\":14397:14575   */\n    tag_114:\n        /* \"#utility.yul\":14537:14567   */\n      0x4a6f6220616c72656164792068617320616e206170706c6963616e7400000000\n        /* \"#utility.yul\":14533:14534   */\n      0x00\n        /* \"#utility.yul\":14525:14531   */\n      dup3\n        /* \"#utility.yul\":14521:14535   */\n      add\n        /* \"#utility.yul\":14514:14568   */\n      mstore\n        /* \"#utility.yul\":14397:14575   */\n      pop\n      jump\t// out\n        /* \"#utility.yul\":14581:14947   */\n    tag_115:\n        /* \"#utility.yul\":14723:14726   */\n      0x00\n        /* \"#utility.yul\":14744:14811   */\n      tag_273\n        /* \"#utility.yul\":14808:14810   */\n      0x1c\n        /* \"#utility.yul\":14803:14806   */\n      dup4\n        /* \"#utility.yul\":14744:14811   */\n      tag_77\n      jump\t// in\n    tag_273:\n        /* \"#utility.yul\":14737:14811   */\n      swap2\n      pop\n        /* \"#utility.yul\":14820:14913   */\n      tag_274\n        /* \"#utility.yul\":14909:14912   */\n      dup3\n        /* \"#utility.yul\":14820:14913   */\n      tag_114\n      jump\t// in\n    tag_274:\n        /* \"#utility.yul\":14938:14940   */\n      0x20\n        /* \"#utility.yul\":14933:14936   */\n      dup3\n        /* \"#utility.yul\":14929:14941   */\n      add\n        /* \"#utility.yul\":14922:14941   */\n      swap1\n      pop\n        /* \"#utility.yul\":14581:14947   */\n      swap2\n      swap1\n      pop\n      jump\t// out\n        /* \"#utility.yul\":14953:15372   */\n    tag_66:\n        /* \"#utility.yul\":15119:15123   */\n      0x00\n        /* \"#utility.yul\":15157:15159   */\n      0x20\n        /* \"#utility.yul\":15146:15155   */\n      dup3\n        /* \"#utility.yul\":15142:15160   */\n      add\n        /* \"#utility.yul\":15134:15160   */\n      swap1\n      pop\n        /* \"#utility.yul\":15206:15215   */\n      dup2\n        /* \"#utility.yul\":15200:15204   */\n      dup2\n        /* \"#utility.yul\":15196:15216   */\n      sub\n        /* \"#utility.yul\":15192:15193   */\n      0x00\n        /* \"#utility.yul\":15181:15190   */\n      dup4\n        /* \"#utility.yul\":15177:15194   */\n      add\n        /* \"#utility.yul\":15170:15217   */\n      mstore\n        /* \"#utility.yul\":15234:15365   */\n      tag_276\n        /* \"#utility.yul\":15360:15364   */\n      dup2\n        /* \"#utility.yul\":15234:15365   */\n      tag_115\n      jump\t// in\n    tag_276:\n        /* \"#utility.yul\":15226:15365   */\n      swap1\n      pop\n        /* \"#utility.yul\":14953:15372   */\n      swap2\n      swap1\n      pop\n      jump\t// out\n        /* \"#utility.yul\":15378:15710   */\n    tag_68:\n        /* \"#utility.yul\":15499:15503   */\n      0x00\n        /* \"#utility.yul\":15537:15539   */\n      0x40\n        /* \"#utility.yul\":15526:15535   */\n      dup3\n        /* \"#utility.yul\":15522:15540   */\n      add\n        /* \"#utility.yul\":15514:15540   */\n      swap1\n      pop\n        /* \"#utility.yul\":15550:15621   */\n      tag_278\n        /* \"#utility.yul\":15618:15619   */\n      0x00\n        /* \"#utility.yul\":15607:15616   */\n      dup4\n        /* \"#utility.yul\":15603:15620   */\n      add\n        /* \"#utility.yul\":15594:15600   */\n      dup6\n        /* \"#utility.yul\":15550:15621   */\n      tag_75\n      jump\t// in\n    tag_278:\n        /* \"#utility.yul\":15631:15703   */\n      tag_279\n        /* \"#utility.yul\":15699:15701   */\n      0x20\n        /* \"#utility.yul\":15688:15697   */\n      dup4\n        /* \"#utility.yul\":15684:15702   */\n      add\n        /* \"#utility.yul\":15675:15681   */\n      dup5\n        /* \"#utility.yul\":15631:15703   */\n      tag_83\n      jump\t// in\n    tag_279:\n        /* \"#utility.yul\":15378:15710   */\n      swap4\n      swap3\n      pop\n      pop\n      pop\n      jump\t// out\n\n    auxdata: 0xa26469706673582212207a9b26279aca5e5d7a3003d33fc5bdb374db716389d036463115df4fafe4da1a64736f6c634300081a0033\n}\n",
				"bytecode": {
					"linkReferences": {},
					"object": "6080604052348015600e575f80fd5b506110c28061001c5f395ff3fe608060405234801561000f575f80fd5b5060043610610055575f3560e01c8063180aedf3146100595780634c5d8a0f1461008e578063a01e5676146100ac578063bf22c457146100c8578063e0c94ae5146100fc575b5f80fd5b610073600480360381019061006e9190610892565b610118565b60405161008596959493929190610995565b60405180910390f35b6100966102a6565b6040516100a39190610a02565b60405180910390f35b6100c660048036038101906100c19190610b47565b6102ac565b005b6100e260048036038101906100dd9190610892565b610457565b6040516100f3959493929190610bbd565b60405180910390f35b61011660048036038101906101119190610892565b610696565b005b5f602052805f5260405f205f91509050805f01549080600101805461013c90610c49565b80601f016020809104026020016040519081016040528092919081815260200182805461016890610c49565b80156101b35780601f1061018a576101008083540402835291602001916101b3565b820191905f5260205f20905b81548152906001019060200180831161019657829003601f168201915b5050505050908060020180546101c890610c49565b80601f01602080910402602001604051908101604052809291908181526020018280546101f490610c49565b801561023f5780601f106102165761010080835404028352916020019161023f565b820191905f5260205f20905b81548152906001019060200180831161022257829003601f168201915b505050505090806003015f9054906101000a900473ffffffffffffffffffffffffffffffffffffffff1690806004015f9054906101000a900473ffffffffffffffffffffffffffffffffffffffff16908060040160149054906101000a900460ff16905086565b60015481565b60015f8154809291906102be90610ca6565b91905055506040518060c0016040528060015481526020018381526020018281526020013373ffffffffffffffffffffffffffffffffffffffff1681526020015f73ffffffffffffffffffffffffffffffffffffffff168152602001600115158152505f8060015481526020019081526020015f205f820151815f015560208201518160010190816103509190610e8a565b5060408201518160020190816103669190610e8a565b506060820151816003015f6101000a81548173ffffffffffffffffffffffffffffffffffffffff021916908373ffffffffffffffffffffffffffffffffffffffff1602179055506080820151816004015f6101000a81548173ffffffffffffffffffffffffffffffffffffffff021916908373ffffffffffffffffffffffffffffffffffffffff16021790555060a08201518160040160146101000a81548160ff0219169083151502179055509050507f4d735a55ef1592186e3de98cfded1b75826f5b08a7d2777536ac6bcc9b5e8f2b600154833360405161044b93929190610f59565b60405180910390a15050565b6060805f805f805f808881526020019081526020015f206040518060c00160405290815f820154815260200160018201805461049290610c49565b80601f01602080910402602001604051908101604052809291908181526020018280546104be90610c49565b80156105095780601f106104e057610100808354040283529160200191610509565b820191905f5260205f20905b8154815290600101906020018083116104ec57829003601f168201915b5050505050815260200160028201805461052290610c49565b80601f016020809104026020016040519081016040528092919081815260200182805461054e90610c49565b80156105995780601f1061057057610100808354040283529160200191610599565b820191905f5260205f20905b81548152906001019060200180831161057c57829003601f168201915b50505050508152602001600382015f9054906101000a900473ffffffffffffffffffffffffffffffffffffffff1673ffffffffffffffffffffffffffffffffffffffff1673ffffffffffffffffffffffffffffffffffffffff168152602001600482015f9054906101000a900473ffffffffffffffffffffffffffffffffffffffff1673ffffffffffffffffffffffffffffffffffffffff1673ffffffffffffffffffffffffffffffffffffffff1681526020016004820160149054906101000a900460ff161515151581525050905080602001518160400151826060015183608001518460a00151955095509550955095505091939590929450565b5f808281526020019081526020015f2060040160149054906101000a900460ff166106f6576040517f08c379a00000000000000000000000000000000000000000000000000000000081526004016106ed90610fdf565b60405180910390fd5b5f73ffffffffffffffffffffffffffffffffffffffff165f808381526020019081526020015f206004015f9054906101000a900473ffffffffffffffffffffffffffffffffffffffff1673ffffffffffffffffffffffffffffffffffffffff1614610796576040517f08c379a000000000000000000000000000000000000000000000000000000000815260040161078d90611047565b60405180910390fd5b335f808381526020019081526020015f206004015f6101000a81548173ffffffffffffffffffffffffffffffffffffffff021916908373ffffffffffffffffffffffffffffffffffffffff1602179055505f805f8381526020019081526020015f2060040160146101000a81548160ff0219169083151502179055507fffa837d183240a5f25cbd643a8eade702c0c9c3e186c59c7d929e4f1a3438d868133604051610843929190611065565b60405180910390a150565b5f604051905090565b5f80fd5b5f80fd5b5f819050919050565b6108718161085f565b811461087b575f80fd5b50565b5f8135905061088c81610868565b92915050565b5f602082840312156108a7576108a6610857565b5b5f6108b48482850161087e565b91505092915050565b6108c68161085f565b82525050565b5f81519050919050565b5f82825260208201905092915050565b8281835e5f83830152505050565b5f601f19601f8301169050919050565b5f61090e826108cc565b61091881856108d6565b93506109288185602086016108e6565b610931816108f4565b840191505092915050565b5f73ffffffffffffffffffffffffffffffffffffffff82169050919050565b5f6109658261093c565b9050919050565b6109758161095b565b82525050565b5f8115159050919050565b61098f8161097b565b82525050565b5f60c0820190506109a85f8301896108bd565b81810360208301526109ba8188610904565b905081810360408301526109ce8187610904565b90506109dd606083018661096c565b6109ea608083018561096c565b6109f760a0830184610986565b979650505050505050565b5f602082019050610a155f8301846108bd565b92915050565b5f80fd5b5f80fd5b7f4e487b71000000000000000000000000000000000000000000000000000000005f52604160045260245ffd5b610a59826108f4565b810181811067ffffffffffffffff82111715610a7857610a77610a23565b5b80604052505050565b5f610a8a61084e565b9050610a968282610a50565b919050565b5f67ffffffffffffffff821115610ab557610ab4610a23565b5b610abe826108f4565b9050602081019050919050565b828183375f83830152505050565b5f610aeb610ae684610a9b565b610a81565b905082815260208101848484011115610b0757610b06610a1f565b5b610b12848285610acb565b509392505050565b5f82601f830112610b2e57610b2d610a1b565b5b8135610b3e848260208601610ad9565b91505092915050565b5f8060408385031215610b5d57610b5c610857565b5b5f83013567ffffffffffffffff811115610b7a57610b7961085b565b5b610b8685828601610b1a565b925050602083013567ffffffffffffffff811115610ba757610ba661085b565b5b610bb385828601610b1a565b9150509250929050565b5f60a0820190508181035f830152610bd58188610904565b90508181036020830152610be98187610904565b9050610bf8604083018661096c565b610c05606083018561096c565b610c126080830184610986565b9695505050505050565b7f4e487b71000000000000000000000000000000000000000000000000000000005f52602260045260245ffd5b5f6002820490506001821680610c6057607f821691505b602082108103610c7357610c72610c1c565b5b50919050565b7f4e487b71000000000000000000000000000000000000000000000000000000005f52601160045260245ffd5b5f610cb08261085f565b91507fffffffffffffffffffffffffffffffffffffffffffffffffffffffffffffffff8203610ce257610ce1610c79565b5b600182019050919050565b5f819050815f5260205f209050919050565b5f6020601f8301049050919050565b5f82821b905092915050565b5f60088302610d497fffffffffffffffffffffffffffffffffffffffffffffffffffffffffffffffff82610d0e565b610d538683610d0e565b95508019841693508086168417925050509392505050565b5f819050919050565b5f610d8e610d89610d848461085f565b610d6b565b61085f565b9050919050565b5f819050919050565b610da783610d74565b610dbb610db382610d95565b848454610d1a565b825550505050565b5f90565b610dcf610dc3565b610dda818484610d9e565b505050565b5b81811015610dfd57610df25f82610dc7565b600181019050610de0565b5050565b601f821115610e4257610e1381610ced565b610e1c84610cff565b81016020851015610e2b578190505b610e3f610e3785610cff565b830182610ddf565b50505b505050565b5f82821c905092915050565b5f610e625f1984600802610e47565b1980831691505092915050565b5f610e7a8383610e53565b9150826002028217905092915050565b610e93826108cc565b67ffffffffffffffff811115610eac57610eab610a23565b5b610eb68254610c49565b610ec1828285610e01565b5f60209050601f831160018114610ef2575f8415610ee0578287015190505b610eea8582610e6f565b865550610f51565b601f198416610f0086610ced565b5f5b82811015610f2757848901518255600182019150602085019450602081019050610f02565b86831015610f445784890151610f40601f891682610e53565b8355505b6001600288020188555050505b505050505050565b5f606082019050610f6c5f8301866108bd565b8181036020830152610f7e8185610904565b9050610f8d604083018461096c565b949350505050565b7f4a6f62206973206e6f206c6f6e676572206f70656e00000000000000000000005f82015250565b5f610fc96015836108d6565b9150610fd482610f95565b602082019050919050565b5f6020820190508181035f830152610ff681610fbd565b9050919050565b7f4a6f6220616c72656164792068617320616e206170706c6963616e74000000005f82015250565b5f611031601c836108d6565b915061103c82610ffd565b602082019050919050565b5f6020820190508181035f83015261105e81611025565b9050919050565b5f6040820190506110785f8301856108bd565b611085602083018461096c565b939250505056fea26469706673582212207a9b26279aca5e5d7a3003d33fc5bdb374db716389d036463115df4fafe4da1a64736f6c634300081a0033",
					"opcodes": "PUSH1 0x80 PUSH1 0x40 MSTORE CALLVALUE DUP1 ISZERO PUSH1 0xE JUMPI PUSH0 DUP1 REVERT JUMPDEST POP PUSH2 0x10C2 DUP1 PUSH2 0x1C PUSH0 CODECOPY PUSH0 RETURN INVALID PUSH1 0x80 PUSH1 0x40 MSTORE CALLVALUE DUP1 ISZERO PUSH2 0xF JUMPI PUSH0 DUP1 REVERT JUMPDEST POP PUSH1 0x4 CALLDATASIZE LT PUSH2 0x55 JUMPI PUSH0 CALLDATALOAD PUSH1 0xE0 SHR DUP1 PUSH4 0x180AEDF3 EQ PUSH2 0x59 JUMPI DUP1 PUSH4 0x4C5D8A0F EQ PUSH2 0x8E JUMPI DUP1 PUSH4 0xA01E5676 EQ PUSH2 0xAC JUMPI DUP1 PUSH4 0xBF22C457 EQ PUSH2 0xC8 JUMPI DUP1 PUSH4 0xE0C94AE5 EQ PUSH2 0xFC JUMPI JUMPDEST PUSH0 DUP1 REVERT JUMPDEST PUSH2 0x73 PUSH1 0x4 DUP1 CALLDATASIZE SUB DUP2 ADD SWAP1 PUSH2 0x6E SWAP2 SWAP1 PUSH2 0x892 JUMP JUMPDEST PUSH2 0x118 JUMP JUMPDEST PUSH1 0x40 MLOAD PUSH2 0x85 SWAP7 SWAP6 SWAP5 SWAP4 SWAP3 SWAP2 SWAP1 PUSH2 0x995 JUMP JUMPDEST PUSH1 0x40 MLOAD DUP1 SWAP2 SUB SWAP1 RETURN JUMPDEST PUSH2 0x96 PUSH2 0x2A6 JUMP JUMPDEST PUSH1 0x40 MLOAD PUSH2 0xA3 SWAP2 SWAP1 PUSH2 0xA02 JUMP JUMPDEST PUSH1 0x40 MLOAD DUP1 SWAP2 SUB SWAP1 RETURN JUMPDEST PUSH2 0xC6 PUSH1 0x4 DUP1 CALLDATASIZE SUB DUP2 ADD SWAP1 PUSH2 0xC1 SWAP2 SWAP1 PUSH2 0xB47 JUMP JUMPDEST PUSH2 0x2AC JUMP JUMPDEST STOP JUMPDEST PUSH2 0xE2 PUSH1 0x4 DUP1 CALLDATASIZE SUB DUP2 ADD SWAP1 PUSH2 0xDD SWAP2 SWAP1 PUSH2 0x892 JUMP JUMPDEST PUSH2 0x457 JUMP JUMPDEST PUSH1 0x40 MLOAD PUSH2 0xF3 SWAP6 SWAP5 SWAP4 SWAP3 SWAP2 SWAP1 PUSH2 0xBBD JUMP JUMPDEST PUSH1 0x40 MLOAD DUP1 SWAP2 SUB SWAP1 RETURN JUMPDEST PUSH2 0x116 PUSH1 0x4 DUP1 CALLDATASIZE SUB DUP2 ADD SWAP1 PUSH2 0x111 SWAP2 SWAP1 PUSH2 0x892 JUMP JUMPDEST PUSH2 0x696 JUMP JUMPDEST STOP JUMPDEST PUSH0 PUSH1 0x20 MSTORE DUP1 PUSH0 MSTORE PUSH1 0x40 PUSH0 KECCAK256 PUSH0 SWAP2 POP SWAP1 POP DUP1 PUSH0 ADD SLOAD SWAP1 DUP1 PUSH1 0x1 ADD DUP1 SLOAD PUSH2 0x13C SWAP1 PUSH2 0xC49 JUMP JUMPDEST DUP1 PUSH1 0x1F ADD PUSH1 0x20 DUP1 SWAP2 DIV MUL PUSH1 0x20 ADD PUSH1 0x40 MLOAD SWAP1 DUP2 ADD PUSH1 0x40 MSTORE DUP1 SWAP3 SWAP2 SWAP1 DUP2 DUP2 MSTORE PUSH1 0x20 ADD DUP3 DUP1 SLOAD PUSH2 0x168 SWAP1 PUSH2 0xC49 JUMP JUMPDEST DUP1 ISZERO PUSH2 0x1B3 JUMPI DUP1 PUSH1 0x1F LT PUSH2 0x18A JUMPI PUSH2 0x100 DUP1 DUP4 SLOAD DIV MUL DUP4 MSTORE SWAP2 PUSH1 0x20 ADD SWAP2 PUSH2 0x1B3 JUMP JUMPDEST DUP3 ADD SWAP2 SWAP1 PUSH0 MSTORE PUSH1 0x20 PUSH0 KECCAK256 SWAP1 JUMPDEST DUP2 SLOAD DUP2 MSTORE SWAP1 PUSH1 0x1 ADD SWAP1 PUSH1 0x20 ADD DUP1 DUP4 GT PUSH2 0x196 JUMPI DUP3 SWAP1 SUB PUSH1 0x1F AND DUP3 ADD SWAP2 JUMPDEST POP POP POP POP POP SWAP1 DUP1 PUSH1 0x2 ADD DUP1 SLOAD PUSH2 0x1C8 SWAP1 PUSH2 0xC49 JUMP JUMPDEST DUP1 PUSH1 0x1F ADD PUSH1 0x20 DUP1 SWAP2 DIV MUL PUSH1 0x20 ADD PUSH1 0x40 MLOAD SWAP1 DUP2 ADD PUSH1 0x40 MSTORE DUP1 SWAP3 SWAP2 SWAP1 DUP2 DUP2 MSTORE PUSH1 0x20 ADD DUP3 DUP1 SLOAD PUSH2 0x1F4 SWAP1 PUSH2 0xC49 JUMP JUMPDEST DUP1 ISZERO PUSH2 0x23F JUMPI DUP1 PUSH1 0x1F LT PUSH2 0x216 JUMPI PUSH2 0x100 DUP1 DUP4 SLOAD DIV MUL DUP4 MSTORE SWAP2 PUSH1 0x20 ADD SWAP2 PUSH2 0x23F JUMP JUMPDEST DUP3 ADD SWAP2 SWAP1 PUSH0 MSTORE PUSH1 0x20 PUSH0 KECCAK256 SWAP1 JUMPDEST DUP2 SLOAD DUP2 MSTORE SWAP1 PUSH1 0x1 ADD SWAP1 PUSH1 0x20 ADD DUP1 DUP4 GT PUSH2 0x222 JUMPI DUP3 SWAP1 SUB PUSH1 0x1F AND DUP3 ADD SWAP2 JUMPDEST POP POP POP POP POP SWAP1 DUP1 PUSH1 0x3 ADD PUSH0 SWAP1 SLOAD SWAP1 PUSH2 0x100 EXP SWAP1 DIV PUSH20 0xFFFFFFFFFFFFFFFFFFFFFFFFFFFFFFFFFFFFFFFF AND SWAP1 DUP1 PUSH1 0x4 ADD PUSH0 SWAP1 SLOAD SWAP1 PUSH2 0x100 EXP SWAP1 DIV PUSH20 0xFFFFFFFFFFFFFFFFFFFFFFFFFFFFFFFFFFFFFFFF AND SWAP1 DUP1 PUSH1 0x4 ADD PUSH1 0x14 SWAP1 SLOAD SWAP1 PUSH2 0x100 EXP SWAP1 DIV PUSH1 0xFF AND SWAP1 POP DUP7 JUMP JUMPDEST PUSH1 0x1 SLOAD DUP2 JUMP JUMPDEST PUSH1 0x1 PUSH0 DUP2 SLOAD DUP1 SWAP3 SWAP2 SWAP1 PUSH2 0x2BE SWAP1 PUSH2 0xCA6 JUMP JUMPDEST SWAP2 SWAP1 POP SSTORE POP PUSH1 0x40 MLOAD DUP1 PUSH1 0xC0 ADD PUSH1 0x40 MSTORE DUP1 PUSH1 0x1 SLOAD DUP2 MSTORE PUSH1 0x20 ADD DUP4 DUP2 MSTORE PUSH1 0x20 ADD DUP3 DUP2 MSTORE PUSH1 0x20 ADD CALLER PUSH20 0xFFFFFFFFFFFFFFFFFFFFFFFFFFFFFFFFFFFFFFFF AND DUP2 MSTORE PUSH1 0x20 ADD PUSH0 PUSH20 0xFFFFFFFFFFFFFFFFFFFFFFFFFFFFFFFFFFFFFFFF AND DUP2 MSTORE PUSH1 0x20 ADD PUSH1 0x1 ISZERO ISZERO DUP2 MSTORE POP PUSH0 DUP1 PUSH1 0x1 SLOAD DUP2 MSTORE PUSH1 0x20 ADD SWAP1 DUP2 MSTORE PUSH1 0x20 ADD PUSH0 KECCAK256 PUSH0 DUP3 ADD MLOAD DUP2 PUSH0 ADD SSTORE PUSH1 0x20 DUP3 ADD MLOAD DUP2 PUSH1 0x1 ADD SWAP1 DUP2 PUSH2 0x350 SWAP2 SWAP1 PUSH2 0xE8A JUMP JUMPDEST POP PUSH1 0x40 DUP3 ADD MLOAD DUP2 PUSH1 0x2 ADD SWAP1 DUP2 PUSH2 0x366 SWAP2 SWAP1 PUSH2 0xE8A JUMP JUMPDEST POP PUSH1 0x60 DUP3 ADD MLOAD DUP2 PUSH1 0x3 ADD PUSH0 PUSH2 0x100 EXP DUP2 SLOAD DUP2 PUSH20 0xFFFFFFFFFFFFFFFFFFFFFFFFFFFFFFFFFFFFFFFF MUL NOT AND SWAP1 DUP4 PUSH20 0xFFFFFFFFFFFFFFFFFFFFFFFFFFFFFFFFFFFFFFFF AND MUL OR SWAP1 SSTORE POP PUSH1 0x80 DUP3 ADD MLOAD DUP2 PUSH1 0x4 ADD PUSH0 PUSH2 0x100 EXP DUP2 SLOAD DUP2 PUSH20 0xFFFFFFFFFFFFFFFFFFFFFFFFFFFFFFFFFFFFFFFF MUL NOT AND SWAP1 DUP4 PUSH20 0xFFFFFFFFFFFFFFFFFFFFFFFFFFFFFFFFFFFFFFFF AND MUL OR SWAP1 SSTORE POP PUSH1 0xA0 DUP3 ADD MLOAD DUP2 PUSH1 0x4 ADD PUSH1 0x14 PUSH2 0x100 EXP DUP2 SLOAD DUP2 PUSH1 0xFF MUL NOT AND SWAP1 DUP4 ISZERO ISZERO MUL OR SWAP1 SSTORE POP SWAP1 POP POP PUSH32 0x4D735A55EF1592186E3DE98CFDED1B75826F5B08A7D2777536AC6BCC9B5E8F2B PUSH1 0x1 SLOAD DUP4 CALLER PUSH1 0x40 MLOAD PUSH2 0x44B SWAP4 SWAP3 SWAP2 SWAP1 PUSH2 0xF59 JUMP JUMPDEST PUSH1 0x40 MLOAD DUP1 SWAP2 SUB SWAP1 LOG1 POP POP JUMP JUMPDEST PUSH1 0x60 DUP1 PUSH0 DUP1 PUSH0 DUP1 PUSH0 DUP1 DUP9 DUP2 MSTORE PUSH1 0x20 ADD SWAP1 DUP2 MSTORE PUSH1 0x20 ADD PUSH0 KECCAK256 PUSH1 0x40 MLOAD DUP1 PUSH1 0xC0 ADD PUSH1 0x40 MSTORE SWAP1 DUP2 PUSH0 DUP3 ADD SLOAD DUP2 MSTORE PUSH1 0x20 ADD PUSH1 0x1 DUP3 ADD DUP1 SLOAD PUSH2 0x492 SWAP1 PUSH2 0xC49 JUMP JUMPDEST DUP1 PUSH1 0x1F ADD PUSH1 0x20 DUP1 SWAP2 DIV MUL PUSH1 0x20 ADD PUSH1 0x40 MLOAD SWAP1 DUP2 ADD PUSH1 0x40 MSTORE DUP1 SWAP3 SWAP2 SWAP1 DUP2 DUP2 MSTORE PUSH1 0x20 ADD DUP3 DUP1 SLOAD PUSH2 0x4BE SWAP1 PUSH2 0xC49 JUMP JUMPDEST DUP1 ISZERO PUSH2 0x509 JUMPI DUP1 PUSH1 0x1F LT PUSH2 0x4E0 JUMPI PUSH2 0x100 DUP1 DUP4 SLOAD DIV MUL DUP4 MSTORE SWAP2 PUSH1 0x20 ADD SWAP2 PUSH2 0x509 JUMP JUMPDEST DUP3 ADD SWAP2 SWAP1 PUSH0 MSTORE PUSH1 0x20 PUSH0 KECCAK256 SWAP1 JUMPDEST DUP2 SLOAD DUP2 MSTORE SWAP1 PUSH1 0x1 ADD SWAP1 PUSH1 0x20 ADD DUP1 DUP4 GT PUSH2 0x4EC JUMPI DUP3 SWAP1 SUB PUSH1 0x1F AND DUP3 ADD SWAP2 JUMPDEST POP POP POP POP POP DUP2 MSTORE PUSH1 0x20 ADD PUSH1 0x2 DUP3 ADD DUP1 SLOAD PUSH2 0x522 SWAP1 PUSH2 0xC49 JUMP JUMPDEST DUP1 PUSH1 0x1F ADD PUSH1 0x20 DUP1 SWAP2 DIV MUL PUSH1 0x20 ADD PUSH1 0x40 MLOAD SWAP1 DUP2 ADD PUSH1 0x40 MSTORE DUP1 SWAP3 SWAP2 SWAP1 DUP2 DUP2 MSTORE PUSH1 0x20 ADD DUP3 DUP1 SLOAD PUSH2 0x54E SWAP1 PUSH2 0xC49 JUMP JUMPDEST DUP1 ISZERO PUSH2 0x599 JUMPI DUP1 PUSH1 0x1F LT PUSH2 0x570 JUMPI PUSH2 0x100 DUP1 DUP4 SLOAD DIV MUL DUP4 MSTORE SWAP2 PUSH1 0x20 ADD SWAP2 PUSH2 0x599 JUMP JUMPDEST DUP3 ADD SWAP2 SWAP1 PUSH0 MSTORE PUSH1 0x20 PUSH0 KECCAK256 SWAP1 JUMPDEST DUP2 SLOAD DUP2 MSTORE SWAP1 PUSH1 0x1 ADD SWAP1 PUSH1 0x20 ADD DUP1 DUP4 GT PUSH2 0x57C JUMPI DUP3 SWAP1 SUB PUSH1 0x1F AND DUP3 ADD SWAP2 JUMPDEST POP POP POP POP POP DUP2 MSTORE PUSH1 0x20 ADD PUSH1 0x3 DUP3 ADD PUSH0 SWAP1 SLOAD SWAP1 PUSH2 0x100 EXP SWAP1 DIV PUSH20 0xFFFFFFFFFFFFFFFFFFFFFFFFFFFFFFFFFFFFFFFF AND PUSH20 0xFFFFFFFFFFFFFFFFFFFFFFFFFFFFFFFFFFFFFFFF AND PUSH20 0xFFFFFFFFFFFFFFFFFFFFFFFFFFFFFFFFFFFFFFFF AND DUP2 MSTORE PUSH1 0x20 ADD PUSH1 0x4 DUP3 ADD PUSH0 SWAP1 SLOAD SWAP1 PUSH2 0x100 EXP SWAP1 DIV PUSH20 0xFFFFFFFFFFFFFFFFFFFFFFFFFFFFFFFFFFFFFFFF AND PUSH20 0xFFFFFFFFFFFFFFFFFFFFFFFFFFFFFFFFFFFFFFFF AND PUSH20 0xFFFFFFFFFFFFFFFFFFFFFFFFFFFFFFFFFFFFFFFF AND DUP2 MSTORE PUSH1 0x20 ADD PUSH1 0x4 DUP3 ADD PUSH1 0x14 SWAP1 SLOAD SWAP1 PUSH2 0x100 EXP SWAP1 DIV PUSH1 0xFF AND ISZERO ISZERO ISZERO ISZERO DUP2 MSTORE POP POP SWAP1 POP DUP1 PUSH1 0x20 ADD MLOAD DUP2 PUSH1 0x40 ADD MLOAD DUP3 PUSH1 0x60 ADD MLOAD DUP4 PUSH1 0x80 ADD MLOAD DUP5 PUSH1 0xA0 ADD MLOAD SWAP6 POP SWAP6 POP SWAP6 POP SWAP6 POP SWAP6 POP POP SWAP2 SWAP4 SWAP6 SWAP1 SWAP3 SWAP5 POP JUMP JUMPDEST PUSH0 DUP1 DUP3 DUP2 MSTORE PUSH1 0x20 ADD SWAP1 DUP2 MSTORE PUSH1 0x20 ADD PUSH0 KECCAK256 PUSH1 0x4 ADD PUSH1 0x14 SWAP1 SLOAD SWAP1 PUSH2 0x100 EXP SWAP1 DIV PUSH1 0xFF AND PUSH2 0x6F6 JUMPI PUSH1 0x40 MLOAD PUSH32 0x8C379A000000000000000000000000000000000000000000000000000000000 DUP2 MSTORE PUSH1 0x4 ADD PUSH2 0x6ED SWAP1 PUSH2 0xFDF JUMP JUMPDEST PUSH1 0x40 MLOAD DUP1 SWAP2 SUB SWAP1 REVERT JUMPDEST PUSH0 PUSH20 0xFFFFFFFFFFFFFFFFFFFFFFFFFFFFFFFFFFFFFFFF AND PUSH0 DUP1 DUP4 DUP2 MSTORE PUSH1 0x20 ADD SWAP1 DUP2 MSTORE PUSH1 0x20 ADD PUSH0 KECCAK256 PUSH1 0x4 ADD PUSH0 SWAP1 SLOAD SWAP1 PUSH2 0x100 EXP SWAP1 DIV PUSH20 0xFFFFFFFFFFFFFFFFFFFFFFFFFFFFFFFFFFFFFFFF AND PUSH20 0xFFFFFFFFFFFFFFFFFFFFFFFFFFFFFFFFFFFFFFFF AND EQ PUSH2 0x796 JUMPI PUSH1 0x40 MLOAD PUSH32 0x8C379A000000000000000000000000000000000000000000000000000000000 DUP2 MSTORE PUSH1 0x4 ADD PUSH2 0x78D SWAP1 PUSH2 0x1047 JUMP JUMPDEST PUSH1 0x40 MLOAD DUP1 SWAP2 SUB SWAP1 REVERT JUMPDEST CALLER PUSH0 DUP1 DUP4 DUP2 MSTORE PUSH1 0x20 ADD SWAP1 DUP2 MSTORE PUSH1 0x20 ADD PUSH0 KECCAK256 PUSH1 0x4 ADD PUSH0 PUSH2 0x100 EXP DUP2 SLOAD DUP2 PUSH20 0xFFFFFFFFFFFFFFFFFFFFFFFFFFFFFFFFFFFFFFFF MUL NOT AND SWAP1 DUP4 PUSH20 0xFFFFFFFFFFFFFFFFFFFFFFFFFFFFFFFFFFFFFFFF AND MUL OR SWAP1 SSTORE POP PUSH0 DUP1 PUSH0 DUP4 DUP2 MSTORE PUSH1 0x20 ADD SWAP1 DUP2 MSTORE PUSH1 0x20 ADD PUSH0 KECCAK256 PUSH1 0x4 ADD PUSH1 0x14 PUSH2 0x100 EXP DUP2 SLOAD DUP2 PUSH1 0xFF MUL NOT AND SWAP1 DUP4 ISZERO ISZERO MUL OR SWAP1 SSTORE POP PUSH32 0xFFA837D183240A5F25CBD643A8EADE702C0C9C3E186C59C7D929E4F1A3438D86 DUP2 CALLER PUSH1 0x40 MLOAD PUSH2 0x843 SWAP3 SWAP2 SWAP1 PUSH2 0x1065 JUMP JUMPDEST PUSH1 0x40 MLOAD DUP1 SWAP2 SUB SWAP1 LOG1 POP JUMP JUMPDEST PUSH0 PUSH1 0x40 MLOAD SWAP1 POP SWAP1 JUMP JUMPDEST PUSH0 DUP1 REVERT JUMPDEST PUSH0 DUP1 REVERT JUMPDEST PUSH0 DUP2 SWAP1 POP SWAP2 SWAP1 POP JUMP JUMPDEST PUSH2 0x871 DUP2 PUSH2 0x85F JUMP JUMPDEST DUP2 EQ PUSH2 0x87B JUMPI PUSH0 DUP1 REVERT JUMPDEST POP JUMP JUMPDEST PUSH0 DUP2 CALLDATALOAD SWAP1 POP PUSH2 0x88C DUP2 PUSH2 0x868 JUMP JUMPDEST SWAP3 SWAP2 POP POP JUMP JUMPDEST PUSH0 PUSH1 0x20 DUP3 DUP5 SUB SLT ISZERO PUSH2 0x8A7 JUMPI PUSH2 0x8A6 PUSH2 0x857 JUMP JUMPDEST JUMPDEST PUSH0 PUSH2 0x8B4 DUP5 DUP3 DUP6 ADD PUSH2 0x87E JUMP JUMPDEST SWAP2 POP POP SWAP3 SWAP2 POP POP JUMP JUMPDEST PUSH2 0x8C6 DUP2 PUSH2 0x85F JUMP JUMPDEST DUP3 MSTORE POP POP JUMP JUMPDEST PUSH0 DUP2 MLOAD SWAP1 POP SWAP2 SWAP1 POP JUMP JUMPDEST PUSH0 DUP3 DUP3 MSTORE PUSH1 0x20 DUP3 ADD SWAP1 POP SWAP3 SWAP2 POP POP JUMP JUMPDEST DUP3 DUP2 DUP4 MCOPY PUSH0 DUP4 DUP4 ADD MSTORE POP POP POP JUMP JUMPDEST PUSH0 PUSH1 0x1F NOT PUSH1 0x1F DUP4 ADD AND SWAP1 POP SWAP2 SWAP1 POP JUMP JUMPDEST PUSH0 PUSH2 0x90E DUP3 PUSH2 0x8CC JUMP JUMPDEST PUSH2 0x918 DUP2 DUP6 PUSH2 0x8D6 JUMP JUMPDEST SWAP4 POP PUSH2 0x928 DUP2 DUP6 PUSH1 0x20 DUP7 ADD PUSH2 0x8E6 JUMP JUMPDEST PUSH2 0x931 DUP2 PUSH2 0x8F4 JUMP JUMPDEST DUP5 ADD SWAP2 POP POP SWAP3 SWAP2 POP POP JUMP JUMPDEST PUSH0 PUSH20 0xFFFFFFFFFFFFFFFFFFFFFFFFFFFFFFFFFFFFFFFF DUP3 AND SWAP1 POP SWAP2 SWAP1 POP JUMP JUMPDEST PUSH0 PUSH2 0x965 DUP3 PUSH2 0x93C JUMP JUMPDEST SWAP1 POP SWAP2 SWAP1 POP JUMP JUMPDEST PUSH2 0x975 DUP2 PUSH2 0x95B JUMP JUMPDEST DUP3 MSTORE POP POP JUMP JUMPDEST PUSH0 DUP2 ISZERO ISZERO SWAP1 POP SWAP2 SWAP1 POP JUMP JUMPDEST PUSH2 0x98F DUP2 PUSH2 0x97B JUMP JUMPDEST DUP3 MSTORE POP POP JUMP JUMPDEST PUSH0 PUSH1 0xC0 DUP3 ADD SWAP1 POP PUSH2 0x9A8 PUSH0 DUP4 ADD DUP10 PUSH2 0x8BD JUMP JUMPDEST DUP2 DUP2 SUB PUSH1 0x20 DUP4 ADD MSTORE PUSH2 0x9BA DUP2 DUP9 PUSH2 0x904 JUMP JUMPDEST SWAP1 POP DUP2 DUP2 SUB PUSH1 0x40 DUP4 ADD MSTORE PUSH2 0x9CE DUP2 DUP8 PUSH2 0x904 JUMP JUMPDEST SWAP1 POP PUSH2 0x9DD PUSH1 0x60 DUP4 ADD DUP7 PUSH2 0x96C JUMP JUMPDEST PUSH2 0x9EA PUSH1 0x80 DUP4 ADD DUP6 PUSH2 0x96C JUMP JUMPDEST PUSH2 0x9F7 PUSH1 0xA0 DUP4 ADD DUP5 PUSH2 0x986 JUMP JUMPDEST SWAP8 SWAP7 POP POP POP POP POP POP POP JUMP JUMPDEST PUSH0 PUSH1 0x20 DUP3 ADD SWAP1 POP PUSH2 0xA15 PUSH0 DUP4 ADD DUP5 PUSH2 0x8BD JUMP JUMPDEST SWAP3 SWAP2 POP POP JUMP JUMPDEST PUSH0 DUP1 REVERT JUMPDEST PUSH0 DUP1 REVERT JUMPDEST PUSH32 0x4E487B7100000000000000000000000000000000000000000000000000000000 PUSH0 MSTORE PUSH1 0x41 PUSH1 0x4 MSTORE PUSH1 0x24 PUSH0 REVERT JUMPDEST PUSH2 0xA59 DUP3 PUSH2 0x8F4 JUMP JUMPDEST DUP2 ADD DUP2 DUP2 LT PUSH8 0xFFFFFFFFFFFFFFFF DUP3 GT OR ISZERO PUSH2 0xA78 JUMPI PUSH2 0xA77 PUSH2 0xA23 JUMP JUMPDEST JUMPDEST DUP1 PUSH1 0x40 MSTORE POP POP POP JUMP JUMPDEST PUSH0 PUSH2 0xA8A PUSH2 0x84E JUMP JUMPDEST SWAP1 POP PUSH2 0xA96 DUP3 DUP3 PUSH2 0xA50 JUMP JUMPDEST SWAP2 SWAP1 POP JUMP JUMPDEST PUSH0 PUSH8 0xFFFFFFFFFFFFFFFF DUP3 GT ISZERO PUSH2 0xAB5 JUMPI PUSH2 0xAB4 PUSH2 0xA23 JUMP JUMPDEST JUMPDEST PUSH2 0xABE DUP3 PUSH2 0x8F4 JUMP JUMPDEST SWAP1 POP PUSH1 0x20 DUP2 ADD SWAP1 POP SWAP2 SWAP1 POP JUMP JUMPDEST DUP3 DUP2 DUP4 CALLDATACOPY PUSH0 DUP4 DUP4 ADD MSTORE POP POP POP JUMP JUMPDEST PUSH0 PUSH2 0xAEB PUSH2 0xAE6 DUP5 PUSH2 0xA9B JUMP JUMPDEST PUSH2 0xA81 JUMP JUMPDEST SWAP1 POP DUP3 DUP2 MSTORE PUSH1 0x20 DUP2 ADD DUP5 DUP5 DUP5 ADD GT ISZERO PUSH2 0xB07 JUMPI PUSH2 0xB06 PUSH2 0xA1F JUMP JUMPDEST JUMPDEST PUSH2 0xB12 DUP5 DUP3 DUP6 PUSH2 0xACB JUMP JUMPDEST POP SWAP4 SWAP3 POP POP POP JUMP JUMPDEST PUSH0 DUP3 PUSH1 0x1F DUP4 ADD SLT PUSH2 0xB2E JUMPI PUSH2 0xB2D PUSH2 0xA1B JUMP JUMPDEST JUMPDEST DUP2 CALLDATALOAD PUSH2 0xB3E DUP5 DUP3 PUSH1 0x20 DUP7 ADD PUSH2 0xAD9 JUMP JUMPDEST SWAP2 POP POP SWAP3 SWAP2 POP POP JUMP JUMPDEST PUSH0 DUP1 PUSH1 0x40 DUP4 DUP6 SUB SLT ISZERO PUSH2 0xB5D JUMPI PUSH2 0xB5C PUSH2 0x857 JUMP JUMPDEST JUMPDEST PUSH0 DUP4 ADD CALLDATALOAD PUSH8 0xFFFFFFFFFFFFFFFF DUP2 GT ISZERO PUSH2 0xB7A JUMPI PUSH2 0xB79 PUSH2 0x85B JUMP JUMPDEST JUMPDEST PUSH2 0xB86 DUP6 DUP3 DUP7 ADD PUSH2 0xB1A JUMP JUMPDEST SWAP3 POP POP PUSH1 0x20 DUP4 ADD CALLDATALOAD PUSH8 0xFFFFFFFFFFFFFFFF DUP2 GT ISZERO PUSH2 0xBA7 JUMPI PUSH2 0xBA6 PUSH2 0x85B JUMP JUMPDEST JUMPDEST PUSH2 0xBB3 DUP6 DUP3 DUP7 ADD PUSH2 0xB1A JUMP JUMPDEST SWAP2 POP POP SWAP3 POP SWAP3 SWAP1 POP JUMP JUMPDEST PUSH0 PUSH1 0xA0 DUP3 ADD SWAP1 POP DUP2 DUP2 SUB PUSH0 DUP4 ADD MSTORE PUSH2 0xBD5 DUP2 DUP9 PUSH2 0x904 JUMP JUMPDEST SWAP1 POP DUP2 DUP2 SUB PUSH1 0x20 DUP4 ADD MSTORE PUSH2 0xBE9 DUP2 DUP8 PUSH2 0x904 JUMP JUMPDEST SWAP1 POP PUSH2 0xBF8 PUSH1 0x40 DUP4 ADD DUP7 PUSH2 0x96C JUMP JUMPDEST PUSH2 0xC05 PUSH1 0x60 DUP4 ADD DUP6 PUSH2 0x96C JUMP JUMPDEST PUSH2 0xC12 PUSH1 0x80 DUP4 ADD DUP5 PUSH2 0x986 JUMP JUMPDEST SWAP7 SWAP6 POP POP POP POP POP POP JUMP JUMPDEST PUSH32 0x4E487B7100000000000000000000000000000000000000000000000000000000 PUSH0 MSTORE PUSH1 0x22 PUSH1 0x4 MSTORE PUSH1 0x24 PUSH0 REVERT JUMPDEST PUSH0 PUSH1 0x2 DUP3 DIV SWAP1 POP PUSH1 0x1 DUP3 AND DUP1 PUSH2 0xC60 JUMPI PUSH1 0x7F DUP3 AND SWAP2 POP JUMPDEST PUSH1 0x20 DUP3 LT DUP2 SUB PUSH2 0xC73 JUMPI PUSH2 0xC72 PUSH2 0xC1C JUMP JUMPDEST JUMPDEST POP SWAP2 SWAP1 POP JUMP JUMPDEST PUSH32 0x4E487B7100000000000000000000000000000000000000000000000000000000 PUSH0 MSTORE PUSH1 0x11 PUSH1 0x4 MSTORE PUSH1 0x24 PUSH0 REVERT JUMPDEST PUSH0 PUSH2 0xCB0 DUP3 PUSH2 0x85F JUMP JUMPDEST SWAP2 POP PUSH32 0xFFFFFFFFFFFFFFFFFFFFFFFFFFFFFFFFFFFFFFFFFFFFFFFFFFFFFFFFFFFFFFFF DUP3 SUB PUSH2 0xCE2 JUMPI PUSH2 0xCE1 PUSH2 0xC79 JUMP JUMPDEST JUMPDEST PUSH1 0x1 DUP3 ADD SWAP1 POP SWAP2 SWAP1 POP JUMP JUMPDEST PUSH0 DUP2 SWAP1 POP DUP2 PUSH0 MSTORE PUSH1 0x20 PUSH0 KECCAK256 SWAP1 POP SWAP2 SWAP1 POP JUMP JUMPDEST PUSH0 PUSH1 0x20 PUSH1 0x1F DUP4 ADD DIV SWAP1 POP SWAP2 SWAP1 POP JUMP JUMPDEST PUSH0 DUP3 DUP3 SHL SWAP1 POP SWAP3 SWAP2 POP POP JUMP JUMPDEST PUSH0 PUSH1 0x8 DUP4 MUL PUSH2 0xD49 PUSH32 0xFFFFFFFFFFFFFFFFFFFFFFFFFFFFFFFFFFFFFFFFFFFFFFFFFFFFFFFFFFFFFFFF DUP3 PUSH2 0xD0E JUMP JUMPDEST PUSH2 0xD53 DUP7 DUP4 PUSH2 0xD0E JUMP JUMPDEST SWAP6 POP DUP1 NOT DUP5 AND SWAP4 POP DUP1 DUP7 AND DUP5 OR SWAP3 POP POP POP SWAP4 SWAP3 POP POP POP JUMP JUMPDEST PUSH0 DUP2 SWAP1 POP SWAP2 SWAP1 POP JUMP JUMPDEST PUSH0 PUSH2 0xD8E PUSH2 0xD89 PUSH2 0xD84 DUP5 PUSH2 0x85F JUMP JUMPDEST PUSH2 0xD6B JUMP JUMPDEST PUSH2 0x85F JUMP JUMPDEST SWAP1 POP SWAP2 SWAP1 POP JUMP JUMPDEST PUSH0 DUP2 SWAP1 POP SWAP2 SWAP1 POP JUMP JUMPDEST PUSH2 0xDA7 DUP4 PUSH2 0xD74 JUMP JUMPDEST PUSH2 0xDBB PUSH2 0xDB3 DUP3 PUSH2 0xD95 JUMP JUMPDEST DUP5 DUP5 SLOAD PUSH2 0xD1A JUMP JUMPDEST DUP3 SSTORE POP POP POP POP JUMP JUMPDEST PUSH0 SWAP1 JUMP JUMPDEST PUSH2 0xDCF PUSH2 0xDC3 JUMP JUMPDEST PUSH2 0xDDA DUP2 DUP5 DUP5 PUSH2 0xD9E JUMP JUMPDEST POP POP POP JUMP JUMPDEST JUMPDEST DUP2 DUP2 LT ISZERO PUSH2 0xDFD JUMPI PUSH2 0xDF2 PUSH0 DUP3 PUSH2 0xDC7 JUMP JUMPDEST PUSH1 0x1 DUP2 ADD SWAP1 POP PUSH2 0xDE0 JUMP JUMPDEST POP POP JUMP JUMPDEST PUSH1 0x1F DUP3 GT ISZERO PUSH2 0xE42 JUMPI PUSH2 0xE13 DUP2 PUSH2 0xCED JUMP JUMPDEST PUSH2 0xE1C DUP5 PUSH2 0xCFF JUMP JUMPDEST DUP2 ADD PUSH1 0x20 DUP6 LT ISZERO PUSH2 0xE2B JUMPI DUP2 SWAP1 POP JUMPDEST PUSH2 0xE3F PUSH2 0xE37 DUP6 PUSH2 0xCFF JUMP JUMPDEST DUP4 ADD DUP3 PUSH2 0xDDF JUMP JUMPDEST POP POP JUMPDEST POP POP POP JUMP JUMPDEST PUSH0 DUP3 DUP3 SHR SWAP1 POP SWAP3 SWAP2 POP POP JUMP JUMPDEST PUSH0 PUSH2 0xE62 PUSH0 NOT DUP5 PUSH1 0x8 MUL PUSH2 0xE47 JUMP JUMPDEST NOT DUP1 DUP4 AND SWAP2 POP POP SWAP3 SWAP2 POP POP JUMP JUMPDEST PUSH0 PUSH2 0xE7A DUP4 DUP4 PUSH2 0xE53 JUMP JUMPDEST SWAP2 POP DUP3 PUSH1 0x2 MUL DUP3 OR SWAP1 POP SWAP3 SWAP2 POP POP JUMP JUMPDEST PUSH2 0xE93 DUP3 PUSH2 0x8CC JUMP JUMPDEST PUSH8 0xFFFFFFFFFFFFFFFF DUP2 GT ISZERO PUSH2 0xEAC JUMPI PUSH2 0xEAB PUSH2 0xA23 JUMP JUMPDEST JUMPDEST PUSH2 0xEB6 DUP3 SLOAD PUSH2 0xC49 JUMP JUMPDEST PUSH2 0xEC1 DUP3 DUP3 DUP6 PUSH2 0xE01 JUMP JUMPDEST PUSH0 PUSH1 0x20 SWAP1 POP PUSH1 0x1F DUP4 GT PUSH1 0x1 DUP2 EQ PUSH2 0xEF2 JUMPI PUSH0 DUP5 ISZERO PUSH2 0xEE0 JUMPI DUP3 DUP8 ADD MLOAD SWAP1 POP JUMPDEST PUSH2 0xEEA DUP6 DUP3 PUSH2 0xE6F JUMP JUMPDEST DUP7 SSTORE POP PUSH2 0xF51 JUMP JUMPDEST PUSH1 0x1F NOT DUP5 AND PUSH2 0xF00 DUP7 PUSH2 0xCED JUMP JUMPDEST PUSH0 JUMPDEST DUP3 DUP2 LT ISZERO PUSH2 0xF27 JUMPI DUP5 DUP10 ADD MLOAD DUP3 SSTORE PUSH1 0x1 DUP3 ADD SWAP2 POP PUSH1 0x20 DUP6 ADD SWAP5 POP PUSH1 0x20 DUP2 ADD SWAP1 POP PUSH2 0xF02 JUMP JUMPDEST DUP7 DUP4 LT ISZERO PUSH2 0xF44 JUMPI DUP5 DUP10 ADD MLOAD PUSH2 0xF40 PUSH1 0x1F DUP10 AND DUP3 PUSH2 0xE53 JUMP JUMPDEST DUP4 SSTORE POP JUMPDEST PUSH1 0x1 PUSH1 0x2 DUP9 MUL ADD DUP9 SSTORE POP POP POP JUMPDEST POP POP POP POP POP POP JUMP JUMPDEST PUSH0 PUSH1 0x60 DUP3 ADD SWAP1 POP PUSH2 0xF6C PUSH0 DUP4 ADD DUP7 PUSH2 0x8BD JUMP JUMPDEST DUP2 DUP2 SUB PUSH1 0x20 DUP4 ADD MSTORE PUSH2 0xF7E DUP2 DUP6 PUSH2 0x904 JUMP JUMPDEST SWAP1 POP PUSH2 0xF8D PUSH1 0x40 DUP4 ADD DUP5 PUSH2 0x96C JUMP JUMPDEST SWAP5 SWAP4 POP POP POP POP JUMP JUMPDEST PUSH32 0x4A6F62206973206E6F206C6F6E676572206F70656E0000000000000000000000 PUSH0 DUP3 ADD MSTORE POP JUMP JUMPDEST PUSH0 PUSH2 0xFC9 PUSH1 0x15 DUP4 PUSH2 0x8D6 JUMP JUMPDEST SWAP2 POP PUSH2 0xFD4 DUP3 PUSH2 0xF95 JUMP JUMPDEST PUSH1 0x20 DUP3 ADD SWAP1 POP SWAP2 SWAP1 POP JUMP JUMPDEST PUSH0 PUSH1 0x20 DUP3 ADD SWAP1 POP DUP2 DUP2 SUB PUSH0 DUP4 ADD MSTORE PUSH2 0xFF6 DUP2 PUSH2 0xFBD JUMP JUMPDEST SWAP1 POP SWAP2 SWAP1 POP JUMP JUMPDEST PUSH32 0x4A6F6220616C72656164792068617320616E206170706C6963616E7400000000 PUSH0 DUP3 ADD MSTORE POP JUMP JUMPDEST PUSH0 PUSH2 0x1031 PUSH1 0x1C DUP4 PUSH2 0x8D6 JUMP JUMPDEST SWAP2 POP PUSH2 0x103C DUP3 PUSH2 0xFFD JUMP JUMPDEST PUSH1 0x20 DUP3 ADD SWAP1 POP SWAP2 SWAP1 POP JUMP JUMPDEST PUSH0 PUSH1 0x20 DUP3 ADD SWAP1 POP DUP2 DUP2 SUB PUSH0 DUP4 ADD MSTORE PUSH2 0x105E DUP2 PUSH2 0x1025 JUMP JUMPDEST SWAP1 POP SWAP2 SWAP1 POP JUMP JUMPDEST PUSH0 PUSH1 0x40 DUP3 ADD SWAP1 POP PUSH2 0x1078 PUSH0 DUP4 ADD DUP6 PUSH2 0x8BD JUMP JUMPDEST PUSH2 0x1085 PUSH1 0x20 DUP4 ADD DUP5 PUSH2 0x96C JUMP JUMPDEST SWAP4 SWAP3 POP POP POP JUMP INVALID LOG2 PUSH5 0x6970667358 0x22 SLT KECCAK256 PUSH27 0x9B26279ACA5E5D7A3003D33FC5BDB374DB716389D036463115DF4F 0xAF 0xE4 0xDA BYTE PUSH5 0x736F6C6343 STOP ADDMOD BYTE STOP CALLER "
				},
				"gasEstimates": {
					"creation": {
						"codeDepositCost": "858000",
						"executionCost": "894",
						"totalCost": "858894"
					},
					"external": {
						"applyForJob(uint256)": "infinite",
						"getJob(uint256)": "infinite",
						"jobCount()": "2425",
						"jobs(uint256)": "infinite",
						"postJob(string,string)": "infinite"
					}
				},
				"methodIdentifiers": {
					"applyForJob(uint256)": "e0c94ae5",
					"getJob(uint256)": "bf22c457",
					"jobCount()": "4c5d8a0f",
					"jobs(uint256)": "180aedf3",
					"postJob(string,string)": "a01e5676"
				}
			},
			"storageLayout": {
				"storage": [
					{
						"astId": 19,
						"contract": "jobposting.sol:JobPosting",
						"label": "jobs",
						"offset": 0,
						"slot": "0",
						"type": "t_mapping(t_uint256,t_struct(Job)14_storage)"
					},
					{
						"astId": 21,
						"contract": "jobposting.sol:JobPosting",
						"label": "jobCount",
						"offset": 0,
						"slot": "1",
						"type": "t_uint256"
					}
				],
				"types": {
					"t_address": {
						"encoding": "inplace",
						"label": "address",
						"numberOfBytes": "20"
					},
					"t_bool": {
						"encoding": "inplace",
						"label": "bool",
						"numberOfBytes": "1"
					},
					"t_mapping(t_uint256,t_struct(Job)14_storage)": {
						"encoding": "mapping",
						"key": "t_uint256",
						"label": "mapping(uint256 => struct JobPosting.Job)",
						"numberOfBytes": "32",
						"value": "t_struct(Job)14_storage"
					},
					"t_string_storage": {
						"encoding": "bytes",
						"label": "string",
						"numberOfBytes": "32"
					},
					"t_struct(Job)14_storage": {
						"encoding": "inplace",
						"label": "struct JobPosting.Job",
						"members": [
							{
								"astId": 3,
								"contract": "jobposting.sol:JobPosting",
								"label": "id",
								"offset": 0,
								"slot": "0",
								"type": "t_uint256"
							},
							{
								"astId": 5,
								"contract": "jobposting.sol:JobPosting",
								"label": "title",
								"offset": 0,
								"slot": "1",
								"type": "t_string_storage"
							},
							{
								"astId": 7,
								"contract": "jobposting.sol:JobPosting",
								"label": "description",
								"offset": 0,
								"slot": "2",
								"type": "t_string_storage"
							},
							{
								"astId": 9,
								"contract": "jobposting.sol:JobPosting",
								"label": "employer",
								"offset": 0,
								"slot": "3",
								"type": "t_address"
							},
							{
								"astId": 11,
								"contract": "jobposting.sol:JobPosting",
								"label": "applicant",
								"offset": 0,
								"slot": "4",
								"type": "t_address"
							},
							{
								"astId": 13,
								"contract": "jobposting.sol:JobPosting",
								"label": "isOpen",
								"offset": 20,
								"slot": "4",
								"type": "t_bool"
							}
						],
						"numberOfBytes": "160"
					},
					"t_uint256": {
						"encoding": "inplace",
						"label": "uint256",
						"numberOfBytes": "32"
					}
				}
			},
			"userdoc": {
				"kind": "user",
				"methods": {},
				"version": 1
			}
		}
	}
}